{
  "contractName": "ForkDelta",
  "abi": [
    {
      "constant": true,
      "inputs": [
        {
          "name": "",
          "type": "address"
        },
        {
          "name": "",
          "type": "bytes32"
        }
      ],
      "name": "orderFills",
      "outputs": [
        {
          "name": "",
          "type": "uint256"
        }
      ],
      "payable": false,
      "stateMutability": "view",
      "type": "function"
    },
    {
      "constant": true,
      "inputs": [
        {
          "name": "",
          "type": "address"
        },
        {
          "name": "",
          "type": "address"
        }
      ],
      "name": "tokens",
      "outputs": [
        {
          "name": "",
          "type": "uint256"
        }
      ],
      "payable": false,
      "stateMutability": "view",
      "type": "function"
    },
    {
      "constant": true,
      "inputs": [],
      "name": "version",
      "outputs": [
        {
          "name": "",
          "type": "uint16"
        }
      ],
      "payable": false,
      "stateMutability": "view",
      "type": "function"
    },
    {
      "constant": true,
      "inputs": [],
      "name": "feeAccount",
      "outputs": [
        {
          "name": "",
          "type": "address"
        }
      ],
      "payable": false,
      "stateMutability": "view",
      "type": "function"
    },
    {
      "constant": true,
      "inputs": [],
      "name": "successor",
      "outputs": [
        {
          "name": "",
          "type": "address"
        }
      ],
      "payable": false,
      "stateMutability": "view",
      "type": "function"
    },
    {
      "constant": true,
      "inputs": [],
      "name": "predecessor",
      "outputs": [
        {
          "name": "",
          "type": "address"
        }
      ],
      "payable": false,
      "stateMutability": "view",
      "type": "function"
    },
    {
      "constant": true,
      "inputs": [
        {
          "name": "",
          "type": "address"
        },
        {
          "name": "",
          "type": "bytes32"
        }
      ],
      "name": "orders",
      "outputs": [
        {
          "name": "",
          "type": "bool"
        }
      ],
      "payable": false,
      "stateMutability": "view",
      "type": "function"
    },
    {
      "constant": true,
      "inputs": [],
      "name": "feeTake",
      "outputs": [
        {
          "name": "",
          "type": "uint256"
        }
      ],
      "payable": false,
      "stateMutability": "view",
      "type": "function"
    },
    {
      "constant": true,
      "inputs": [],
      "name": "admin",
      "outputs": [
        {
          "name": "",
          "type": "address"
        }
      ],
      "payable": false,
      "stateMutability": "view",
      "type": "function"
    },
    {
      "constant": true,
      "inputs": [],
      "name": "freeUntilDate",
      "outputs": [
        {
          "name": "",
          "type": "uint256"
        }
      ],
      "payable": false,
      "stateMutability": "view",
      "type": "function"
    },
    {
      "inputs": [
        {
          "name": "admin_",
          "type": "address"
        },
        {
          "name": "feeAccount_",
          "type": "address"
        },
        {
          "name": "feeTake_",
          "type": "uint256"
        },
        {
          "name": "freeUntilDate_",
          "type": "uint256"
        },
        {
          "name": "predecessor_",
          "type": "address"
        }
      ],
      "payable": false,
      "stateMutability": "nonpayable",
      "type": "constructor"
    },
    {
      "payable": false,
      "stateMutability": "nonpayable",
      "type": "fallback"
    },
    {
      "anonymous": false,
      "inputs": [
        {
          "indexed": false,
          "name": "tokenGet",
          "type": "address"
        },
        {
          "indexed": false,
          "name": "amountGet",
          "type": "uint256"
        },
        {
          "indexed": false,
          "name": "tokenGive",
          "type": "address"
        },
        {
          "indexed": false,
          "name": "amountGive",
          "type": "uint256"
        },
        {
          "indexed": false,
          "name": "expires",
          "type": "uint256"
        },
        {
          "indexed": false,
          "name": "nonce",
          "type": "uint256"
        },
        {
          "indexed": false,
          "name": "user",
          "type": "address"
        }
      ],
      "name": "Order",
      "type": "event"
    },
    {
      "anonymous": false,
      "inputs": [
        {
          "indexed": false,
          "name": "tokenGet",
          "type": "address"
        },
        {
          "indexed": false,
          "name": "amountGet",
          "type": "uint256"
        },
        {
          "indexed": false,
          "name": "tokenGive",
          "type": "address"
        },
        {
          "indexed": false,
          "name": "amountGive",
          "type": "uint256"
        },
        {
          "indexed": false,
          "name": "expires",
          "type": "uint256"
        },
        {
          "indexed": false,
          "name": "nonce",
          "type": "uint256"
        },
        {
          "indexed": false,
          "name": "user",
          "type": "address"
        },
        {
          "indexed": false,
          "name": "v",
          "type": "uint8"
        },
        {
          "indexed": false,
          "name": "r",
          "type": "bytes32"
        },
        {
          "indexed": false,
          "name": "s",
          "type": "bytes32"
        }
      ],
      "name": "Cancel",
      "type": "event"
    },
    {
      "anonymous": false,
      "inputs": [
        {
          "indexed": false,
          "name": "tokenGet",
          "type": "address"
        },
        {
          "indexed": false,
          "name": "amountGet",
          "type": "uint256"
        },
        {
          "indexed": false,
          "name": "tokenGive",
          "type": "address"
        },
        {
          "indexed": false,
          "name": "amountGive",
          "type": "uint256"
        },
        {
          "indexed": false,
          "name": "get",
          "type": "address"
        },
        {
          "indexed": false,
          "name": "give",
          "type": "address"
        }
      ],
      "name": "Trade",
      "type": "event"
    },
    {
      "anonymous": false,
      "inputs": [
        {
          "indexed": false,
          "name": "token",
          "type": "address"
        },
        {
          "indexed": false,
          "name": "user",
          "type": "address"
        },
        {
          "indexed": false,
          "name": "amount",
          "type": "uint256"
        },
        {
          "indexed": false,
          "name": "balance",
          "type": "uint256"
        }
      ],
      "name": "Deposit",
      "type": "event"
    },
    {
      "anonymous": false,
      "inputs": [
        {
          "indexed": false,
          "name": "token",
          "type": "address"
        },
        {
          "indexed": false,
          "name": "user",
          "type": "address"
        },
        {
          "indexed": false,
          "name": "amount",
          "type": "uint256"
        },
        {
          "indexed": false,
          "name": "balance",
          "type": "uint256"
        }
      ],
      "name": "Withdraw",
      "type": "event"
    },
    {
      "anonymous": false,
      "inputs": [
        {
          "indexed": false,
          "name": "user",
          "type": "address"
        },
        {
          "indexed": false,
          "name": "newContract",
          "type": "address"
        }
      ],
      "name": "FundsMigrated",
      "type": "event"
    },
    {
      "constant": false,
      "inputs": [
        {
          "name": "admin_",
          "type": "address"
        }
      ],
      "name": "changeAdmin",
      "outputs": [],
      "payable": false,
      "stateMutability": "nonpayable",
      "type": "function"
    },
    {
      "constant": false,
      "inputs": [
        {
          "name": "feeAccount_",
          "type": "address"
        }
      ],
      "name": "changeFeeAccount",
      "outputs": [],
      "payable": false,
      "stateMutability": "nonpayable",
      "type": "function"
    },
    {
      "constant": false,
      "inputs": [
        {
          "name": "feeTake_",
          "type": "uint256"
        }
      ],
      "name": "changeFeeTake",
      "outputs": [],
      "payable": false,
      "stateMutability": "nonpayable",
      "type": "function"
    },
    {
      "constant": false,
      "inputs": [
        {
          "name": "freeUntilDate_",
          "type": "uint256"
        }
      ],
      "name": "changeFreeUntilDate",
      "outputs": [],
      "payable": false,
      "stateMutability": "nonpayable",
      "type": "function"
    },
    {
      "constant": false,
      "inputs": [
        {
          "name": "successor_",
          "type": "address"
        }
      ],
      "name": "setSuccessor",
      "outputs": [],
      "payable": false,
      "stateMutability": "nonpayable",
      "type": "function"
    },
    {
      "constant": false,
      "inputs": [],
      "name": "deposit",
      "outputs": [],
      "payable": true,
      "stateMutability": "payable",
      "type": "function"
    },
    {
      "constant": false,
      "inputs": [
        {
          "name": "amount",
          "type": "uint256"
        }
      ],
      "name": "withdraw",
      "outputs": [],
      "payable": false,
      "stateMutability": "nonpayable",
      "type": "function"
    },
    {
      "constant": false,
      "inputs": [
        {
          "name": "token",
          "type": "address"
        },
        {
          "name": "amount",
          "type": "uint256"
        }
      ],
      "name": "depositToken",
      "outputs": [],
      "payable": false,
      "stateMutability": "nonpayable",
      "type": "function"
    },
    {
      "constant": false,
      "inputs": [
        {
          "name": "sender",
          "type": "address"
        },
        {
          "name": "amount",
          "type": "uint256"
        },
        {
          "name": "data",
          "type": "bytes"
        }
      ],
      "name": "tokenFallback",
      "outputs": [
        {
          "name": "ok",
          "type": "bool"
        }
      ],
      "payable": false,
      "stateMutability": "nonpayable",
      "type": "function"
    },
    {
      "constant": false,
      "inputs": [
        {
          "name": "token",
          "type": "address"
        },
        {
          "name": "amount",
          "type": "uint256"
        }
      ],
      "name": "withdrawToken",
      "outputs": [],
      "payable": false,
      "stateMutability": "nonpayable",
      "type": "function"
    },
    {
      "constant": true,
      "inputs": [
        {
          "name": "token",
          "type": "address"
        },
        {
          "name": "user",
          "type": "address"
        }
      ],
      "name": "balanceOf",
      "outputs": [
        {
          "name": "",
          "type": "uint256"
        }
      ],
      "payable": false,
      "stateMutability": "view",
      "type": "function"
    },
    {
      "constant": false,
      "inputs": [
        {
          "name": "tokenGet",
          "type": "address"
        },
        {
          "name": "amountGet",
          "type": "uint256"
        },
        {
          "name": "tokenGive",
          "type": "address"
        },
        {
          "name": "amountGive",
          "type": "uint256"
        },
        {
          "name": "expires",
          "type": "uint256"
        },
        {
          "name": "nonce",
          "type": "uint256"
        }
      ],
      "name": "order",
      "outputs": [],
      "payable": false,
      "stateMutability": "nonpayable",
      "type": "function"
    },
    {
      "constant": false,
      "inputs": [
        {
          "name": "tokenGet",
          "type": "address"
        },
        {
          "name": "amountGet",
          "type": "uint256"
        },
        {
          "name": "tokenGive",
          "type": "address"
        },
        {
          "name": "amountGive",
          "type": "uint256"
        },
        {
          "name": "expires",
          "type": "uint256"
        },
        {
          "name": "nonce",
          "type": "uint256"
        },
        {
          "name": "user",
          "type": "address"
        },
        {
          "name": "v",
          "type": "uint8"
        },
        {
          "name": "r",
          "type": "bytes32"
        },
        {
          "name": "s",
          "type": "bytes32"
        },
        {
          "name": "amount",
          "type": "uint256"
        }
      ],
      "name": "trade",
      "outputs": [],
      "payable": false,
      "stateMutability": "nonpayable",
      "type": "function"
    },
    {
      "constant": true,
      "inputs": [
        {
          "name": "tokenGet",
          "type": "address"
        },
        {
          "name": "amountGet",
          "type": "uint256"
        },
        {
          "name": "tokenGive",
          "type": "address"
        },
        {
          "name": "amountGive",
          "type": "uint256"
        },
        {
          "name": "expires",
          "type": "uint256"
        },
        {
          "name": "nonce",
          "type": "uint256"
        },
        {
          "name": "user",
          "type": "address"
        },
        {
          "name": "v",
          "type": "uint8"
        },
        {
          "name": "r",
          "type": "bytes32"
        },
        {
          "name": "s",
          "type": "bytes32"
        },
        {
          "name": "amount",
          "type": "uint256"
        },
        {
          "name": "sender",
          "type": "address"
        }
      ],
      "name": "testTrade",
      "outputs": [
        {
          "name": "",
          "type": "bool"
        }
      ],
      "payable": false,
      "stateMutability": "view",
      "type": "function"
    },
    {
      "constant": true,
      "inputs": [
        {
          "name": "tokenGet",
          "type": "address"
        },
        {
          "name": "amountGet",
          "type": "uint256"
        },
        {
          "name": "tokenGive",
          "type": "address"
        },
        {
          "name": "amountGive",
          "type": "uint256"
        },
        {
          "name": "expires",
          "type": "uint256"
        },
        {
          "name": "nonce",
          "type": "uint256"
        },
        {
          "name": "user",
          "type": "address"
        },
        {
          "name": "v",
          "type": "uint8"
        },
        {
          "name": "r",
          "type": "bytes32"
        },
        {
          "name": "s",
          "type": "bytes32"
        }
      ],
      "name": "availableVolume",
      "outputs": [
        {
          "name": "",
          "type": "uint256"
        }
      ],
      "payable": false,
      "stateMutability": "view",
      "type": "function"
    },
    {
      "constant": true,
      "inputs": [
        {
          "name": "tokenGet",
          "type": "address"
        },
        {
          "name": "amountGet",
          "type": "uint256"
        },
        {
          "name": "tokenGive",
          "type": "address"
        },
        {
          "name": "amountGive",
          "type": "uint256"
        },
        {
          "name": "expires",
          "type": "uint256"
        },
        {
          "name": "nonce",
          "type": "uint256"
        },
        {
          "name": "user",
          "type": "address"
        },
        {
          "name": "v",
          "type": "uint8"
        },
        {
          "name": "r",
          "type": "bytes32"
        },
        {
          "name": "s",
          "type": "bytes32"
        }
      ],
      "name": "amountFilled",
      "outputs": [
        {
          "name": "",
          "type": "uint256"
        }
      ],
      "payable": false,
      "stateMutability": "view",
      "type": "function"
    },
    {
      "constant": false,
      "inputs": [
        {
          "name": "tokenGet",
          "type": "address"
        },
        {
          "name": "amountGet",
          "type": "uint256"
        },
        {
          "name": "tokenGive",
          "type": "address"
        },
        {
          "name": "amountGive",
          "type": "uint256"
        },
        {
          "name": "expires",
          "type": "uint256"
        },
        {
          "name": "nonce",
          "type": "uint256"
        },
        {
          "name": "v",
          "type": "uint8"
        },
        {
          "name": "r",
          "type": "bytes32"
        },
        {
          "name": "s",
          "type": "bytes32"
        }
      ],
      "name": "cancelOrder",
      "outputs": [],
      "payable": false,
      "stateMutability": "nonpayable",
      "type": "function"
    },
    {
      "constant": false,
      "inputs": [
        {
          "name": "newContract",
          "type": "address"
        },
        {
          "name": "tokens_",
          "type": "address[]"
        }
      ],
      "name": "migrateFunds",
      "outputs": [],
      "payable": false,
      "stateMutability": "nonpayable",
      "type": "function"
    },
    {
      "constant": false,
      "inputs": [
        {
          "name": "user",
          "type": "address"
        }
      ],
      "name": "depositForUser",
      "outputs": [],
      "payable": true,
      "stateMutability": "payable",
      "type": "function"
    },
    {
      "constant": false,
      "inputs": [
        {
          "name": "token",
          "type": "address"
        },
        {
          "name": "amount",
          "type": "uint256"
        },
        {
          "name": "user",
          "type": "address"
        }
      ],
      "name": "depositTokenForUser",
      "outputs": [],
      "payable": false,
      "stateMutability": "nonpayable",
      "type": "function"
    }
  ],
  "bytecode": "0x606060405234156200001057600080fd5b60405160a0806200439083398101604052808051906020019091908051906020019091908051906020019091908051906020019091908051906020019091905050846000806101000a81548173ffffffffffffffffffffffffffffffffffffffff021916908373ffffffffffffffffffffffffffffffffffffffff16021790555083600160006101000a81548173ffffffffffffffffffffffffffffffffffffffff021916908373ffffffffffffffffffffffffffffffffffffffff16021790555082600281905550816003819055506000600460006101000a81548160ff02191690831515021790555080600860006101000a81548173ffffffffffffffffffffffffffffffffffffffff021916908373ffffffffffffffffffffffffffffffffffffffff160217905550600073ffffffffffffffffffffffffffffffffffffffff16600860009054906101000a900473ffffffffffffffffffffffffffffffffffffffff1673ffffffffffffffffffffffffffffffffffffffff1614151562000265576001600860009054906101000a900473ffffffffffffffffffffffffffffffffffffffff1673ffffffffffffffffffffffffffffffffffffffff166354fd4d506000604051602001526040518163ffffffff167c0100000000000000000000000000000000000000000000000000000000028152600401602060405180830381600087803b15156200022657600080fd5b6102c65a03f115156200023857600080fd5b5050506040518051905001600960146101000a81548161ffff021916908361ffff16021790555062000284565b6001600960146101000a81548161ffff021916908361ffff1602179055505b50505050506140f780620002996000396000f300606060405260043610610180576000357c0100000000000000000000000000000000000000000000000000000000900463ffffffff1680630a19b14a146101905780630b9276661461025a57806310e5bff8146102d657806319774d431461030f578063278b8c0e146103695780632e1a7d4d1461040b578063338b5dea1461042e5780633c2e2a751461047057806346be96c3146104d1578063508493bc146105a6578063515fdde31461061257806354fd4d501461068b57806365e17c9d146106bc5780636a523c5e146107115780636c86888b1461073f5780636ff968c31461084057806371ffcb16146108955780638823a9c0146108ce5780638f283970146108f15780639e281a981461092a578063a70e82d41461096c578063b719d0321461098f578063bb5f4629146109e4578063c0ee0b8a14610a42578063c281309e14610adf578063d0e30db014610b08578063f7888aec14610b12578063f851a44014610b7e578063f93e671514610bd3578063fb6e155f14610bfc575b341561018b57600080fd5b600080fd5b341561019b57600080fd5b610258600480803573ffffffffffffffffffffffffffffffffffffffff1690602001909190803590602001909190803573ffffffffffffffffffffffffffffffffffffffff1690602001909190803590602001909190803590602001909190803590602001909190803573ffffffffffffffffffffffffffffffffffffffff1690602001909190803560ff169060200190919080356000191690602001909190803560001916906020019091908035906020019091905050610cd1565b005b341561026557600080fd5b6102d4600480803573ffffffffffffffffffffffffffffffffffffffff1690602001909190803590602001909190803573ffffffffffffffffffffffffffffffffffffffff169060200190919080359060200190919080359060200190919080359060200190919050506111f8565b005b34156102e157600080fd5b61030d600480803573ffffffffffffffffffffffffffffffffffffffff16906020019091905050611481565b005b341561031a57600080fd5b610353600480803573ffffffffffffffffffffffffffffffffffffffff169060200190919080356000191690602001909190505061155c565b6040518082815260200191505060405180910390f35b341561037457600080fd5b610409600480803573ffffffffffffffffffffffffffffffffffffffff1690602001909190803590602001909190803573ffffffffffffffffffffffffffffffffffffffff1690602001909190803590602001909190803590602001909190803590602001909190803560ff169060200190919080356000191690602001909190803560001916906020019091905050611581565b005b341561041657600080fd5b61042c6004808035906020019091905050611999565b005b341561043957600080fd5b61046e600480803573ffffffffffffffffffffffffffffffffffffffff16906020019091908035906020019091905050611c2c565b005b341561047b57600080fd5b6104cf600480803573ffffffffffffffffffffffffffffffffffffffff1690602001909190803590602001909190803573ffffffffffffffffffffffffffffffffffffffff16906020019091905050611fc3565b005b34156104dc57600080fd5b610590600480803573ffffffffffffffffffffffffffffffffffffffff1690602001909190803590602001909190803573ffffffffffffffffffffffffffffffffffffffff1690602001909190803590602001909190803590602001909190803590602001909190803573ffffffffffffffffffffffffffffffffffffffff1690602001909190803560ff169060200190919080356000191690602001909190803560001916906020019091905050612299565b6040518082815260200191505060405180910390f35b34156105b157600080fd5b6105fc600480803573ffffffffffffffffffffffffffffffffffffffff1690602001909190803573ffffffffffffffffffffffffffffffffffffffff16906020019091905050612428565b6040518082815260200191505060405180910390f35b341561061d57600080fd5b610689600480803573ffffffffffffffffffffffffffffffffffffffff169060200190919080359060200190820180359060200190808060200260200160405190810160405280939291908181526020018383602002808284378201915050505050509190505061244d565b005b341561069657600080fd5b61069e612a01565b604051808261ffff1661ffff16815260200191505060405180910390f35b34156106c757600080fd5b6106cf612a15565b604051808273ffffffffffffffffffffffffffffffffffffffff1673ffffffffffffffffffffffffffffffffffffffff16815260200191505060405180910390f35b61073d600480803573ffffffffffffffffffffffffffffffffffffffff16906020019091905050612a3b565b005b341561074a57600080fd5b610826600480803573ffffffffffffffffffffffffffffffffffffffff1690602001909190803590602001909190803573ffffffffffffffffffffffffffffffffffffffff1690602001909190803590602001909190803590602001909190803590602001909190803573ffffffffffffffffffffffffffffffffffffffff1690602001909190803560ff16906020019091908035600019169060200190919080356000191690602001909190803590602001909190803573ffffffffffffffffffffffffffffffffffffffff16906020019091905050612b6c565b604051808215151515815260200191505060405180910390f35b341561084b57600080fd5b610853612c2f565b604051808273ffffffffffffffffffffffffffffffffffffffff1673ffffffffffffffffffffffffffffffffffffffff16815260200191505060405180910390f35b34156108a057600080fd5b6108cc600480803573ffffffffffffffffffffffffffffffffffffffff16906020019091905050612c55565b005b34156108d957600080fd5b6108ef6004808035906020019091905050612cf4565b005b34156108fc57600080fd5b610928600480803573ffffffffffffffffffffffffffffffffffffffff16906020019091905050612d6a565b005b341561093557600080fd5b61096a600480803573ffffffffffffffffffffffffffffffffffffffff16906020019091908035906020019091905050612e44565b005b341561097757600080fd5b61098d60048080359060200190919050506131fc565b005b341561099a57600080fd5b6109a2613261565b604051808273ffffffffffffffffffffffffffffffffffffffff1673ffffffffffffffffffffffffffffffffffffffff16815260200191505060405180910390f35b34156109ef57600080fd5b610a28600480803573ffffffffffffffffffffffffffffffffffffffff1690602001909190803560001916906020019091905050613287565b604051808215151515815260200191505060405180910390f35b3415610a4d57600080fd5b610ac5600480803573ffffffffffffffffffffffffffffffffffffffff1690602001909190803590602001909190803590602001908201803590602001908080601f016020809104026020016040519081016040528093929190818152602001838380828437820191505050505050919050506132b6565b604051808215151515815260200191505060405180910390f35b3415610aea57600080fd5b610af26132e2565b6040518082815260200191505060405180910390f35b610b106132e8565b005b3415610b1d57600080fd5b610b68600480803573ffffffffffffffffffffffffffffffffffffffff1690602001909190803573ffffffffffffffffffffffffffffffffffffffff169060200190919050506134c5565b6040518082815260200191505060405180910390f35b3415610b8957600080fd5b610b9161354c565b604051808273ffffffffffffffffffffffffffffffffffffffff1673ffffffffffffffffffffffffffffffffffffffff16815260200191505060405180910390f35b3415610bde57600080fd5b610be6613571565b6040518082815260200191505060405180910390f35b3415610c0757600080fd5b610cbb600480803573ffffffffffffffffffffffffffffffffffffffff1690602001909190803590602001909190803573ffffffffffffffffffffffffffffffffffffffff1690602001909190803590602001909190803590602001909190803590602001909190803573ffffffffffffffffffffffffffffffffffffffff1690602001909190803560ff169060200190919080356000191690602001909190803560001916906020019091905050613577565b6040518082815260200191505060405180910390f35b60006002308d8d8d8d8d8d600060405160200152604051808873ffffffffffffffffffffffffffffffffffffffff1673ffffffffffffffffffffffffffffffffffffffff166c010000000000000000000000000281526014018773ffffffffffffffffffffffffffffffffffffffff1673ffffffffffffffffffffffffffffffffffffffff166c010000000000000000000000000281526014018681526020018573ffffffffffffffffffffffffffffffffffffffff1673ffffffffffffffffffffffffffffffffffffffff166c0100000000000000000000000002815260140184815260200183815260200182815260200197505050505050505060206040518083038160008661646e5a03f11515610dea57600080fd5b5050604051805190509050600660008773ffffffffffffffffffffffffffffffffffffffff1673ffffffffffffffffffffffffffffffffffffffff1681526020019081526020016000206000826000191660001916815260200190815260200160002060009054906101000a900460ff1680610f5c57508573ffffffffffffffffffffffffffffffffffffffff1660018260405180807f19457468657265756d205369676e6564204d6573736167653a0a333200000000815250601c0182600019166000191681526020019150506040518091039020878787604051600081526020016040526000604051602001526040518085600019166000191681526020018460ff1660ff16815260200183600019166000191681526020018260001916600019168152602001945050505050602060405160208103908084039060008661646e5a03f11515610f3b57600080fd5b50506020604051035173ffffffffffffffffffffffffffffffffffffffff16145b8015610f685750874311155b8015610fde57508a610fdb83600760008a73ffffffffffffffffffffffffffffffffffffffff1673ffffffffffffffffffffffffffffffffffffffff16815260200190815260200160002060008560001916600019168152602001908152602001600020546139cb90919063ffffffff16565b11155b1515610fe957600080fd5b610ff78c8c8c8c8a876139ec565b61106282600760008973ffffffffffffffffffffffffffffffffffffffff1673ffffffffffffffffffffffffffffffffffffffff16815260200190815260200160002060008460001916600019168152602001908152602001600020546139cb90919063ffffffff16565b600760008873ffffffffffffffffffffffffffffffffffffffff1673ffffffffffffffffffffffffffffffffffffffff16815260200190815260200160002060008360001916600019168152602001908152602001600020819055507f6effdda786735d5033bfad5f53e5131abcced9e52be6c507b62d639685fbed6d8c838c8e6110f6878f61402090919063ffffffff16565b8115156110ff57fe5b048a33604051808773ffffffffffffffffffffffffffffffffffffffff1673ffffffffffffffffffffffffffffffffffffffff1681526020018681526020018573ffffffffffffffffffffffffffffffffffffffff1673ffffffffffffffffffffffffffffffffffffffff1681526020018481526020018373ffffffffffffffffffffffffffffffffffffffff1673ffffffffffffffffffffffffffffffffffffffff1681526020018273ffffffffffffffffffffffffffffffffffffffff1673ffffffffffffffffffffffffffffffffffffffff168152602001965050505050505060405180910390a1505050505050505050505050565b6000600230888888888888600060405160200152604051808873ffffffffffffffffffffffffffffffffffffffff1673ffffffffffffffffffffffffffffffffffffffff166c010000000000000000000000000281526014018773ffffffffffffffffffffffffffffffffffffffff1673ffffffffffffffffffffffffffffffffffffffff166c010000000000000000000000000281526014018681526020018573ffffffffffffffffffffffffffffffffffffffff1673ffffffffffffffffffffffffffffffffffffffff166c0100000000000000000000000002815260140184815260200183815260200182815260200197505050505050505060206040518083038160008661646e5a03f1151561131157600080fd5b50506040518051905090506001600660003373ffffffffffffffffffffffffffffffffffffffff1673ffffffffffffffffffffffffffffffffffffffff1681526020019081526020016000206000836000191660001916815260200190815260200160002060006101000a81548160ff0219169083151502179055507f3f7f2eda73683c21a15f9435af1028c93185b5f1fa38270762dc32be606b3e8587878787878733604051808873ffffffffffffffffffffffffffffffffffffffff1673ffffffffffffffffffffffffffffffffffffffff1681526020018781526020018673ffffffffffffffffffffffffffffffffffffffff1673ffffffffffffffffffffffffffffffffffffffff1681526020018581526020018481526020018381526020018273ffffffffffffffffffffffffffffffffffffffff1673ffffffffffffffffffffffffffffffffffffffff16815260200197505050505050505060405180910390a150505050505050565b6000809054906101000a900473ffffffffffffffffffffffffffffffffffffffff1673ffffffffffffffffffffffffffffffffffffffff163373ffffffffffffffffffffffffffffffffffffffff161415156114dc57600080fd5b600073ffffffffffffffffffffffffffffffffffffffff168173ffffffffffffffffffffffffffffffffffffffff161415151561151857600080fd5b80600960006101000a81548173ffffffffffffffffffffffffffffffffffffffff021916908373ffffffffffffffffffffffffffffffffffffffff16021790555050565b6007602052816000526040600020602052806000526040600020600091509150505481565b60006002308b8b8b8b8b8b600060405160200152604051808873ffffffffffffffffffffffffffffffffffffffff1673ffffffffffffffffffffffffffffffffffffffff166c010000000000000000000000000281526014018773ffffffffffffffffffffffffffffffffffffffff1673ffffffffffffffffffffffffffffffffffffffff166c010000000000000000000000000281526014018681526020018573ffffffffffffffffffffffffffffffffffffffff1673ffffffffffffffffffffffffffffffffffffffff166c0100000000000000000000000002815260140184815260200183815260200182815260200197505050505050505060206040518083038160008661646e5a03f1151561169a57600080fd5b5050604051805190509050600660003373ffffffffffffffffffffffffffffffffffffffff1673ffffffffffffffffffffffffffffffffffffffff1681526020019081526020016000206000826000191660001916815260200190815260200160002060009054906101000a900460ff168061180c57503373ffffffffffffffffffffffffffffffffffffffff1660018260405180807f19457468657265756d205369676e6564204d6573736167653a0a333200000000815250601c0182600019166000191681526020019150506040518091039020868686604051600081526020016040526000604051602001526040518085600019166000191681526020018460ff1660ff16815260200183600019166000191681526020018260001916600019168152602001945050505050602060405160208103908084039060008661646e5a03f115156117eb57600080fd5b50506020604051035173ffffffffffffffffffffffffffffffffffffffff16145b151561181757600080fd5b88600760003373ffffffffffffffffffffffffffffffffffffffff1673ffffffffffffffffffffffffffffffffffffffff16815260200190815260200160002060008360001916600019168152602001908152602001600020819055507f1e0b760c386003e9cb9bcf4fcf3997886042859d9b6ed6320e804597fcdb28b08a8a8a8a8a8a338b8b8b604051808b73ffffffffffffffffffffffffffffffffffffffff1673ffffffffffffffffffffffffffffffffffffffff1681526020018a81526020018973ffffffffffffffffffffffffffffffffffffffff1673ffffffffffffffffffffffffffffffffffffffff1681526020018881526020018781526020018681526020018573ffffffffffffffffffffffffffffffffffffffff1673ffffffffffffffffffffffffffffffffffffffff1681526020018460ff1660ff168152602001836000191660001916815260200182600019166000191681526020019a505050505050505050505060405180910390a150505050505050505050565b80600560008073ffffffffffffffffffffffffffffffffffffffff16815260200190815260200160002060003373ffffffffffffffffffffffffffffffffffffffff1673ffffffffffffffffffffffffffffffffffffffff1681526020019081526020016000205410151515611a0e57600080fd5b611a8781600560008073ffffffffffffffffffffffffffffffffffffffff16815260200190815260200160002060003373ffffffffffffffffffffffffffffffffffffffff1673ffffffffffffffffffffffffffffffffffffffff1681526020019081526020016000205461405e90919063ffffffff16565b600560008073ffffffffffffffffffffffffffffffffffffffff16815260200190815260200160002060003373ffffffffffffffffffffffffffffffffffffffff1673ffffffffffffffffffffffffffffffffffffffff168152602001908152602001600020819055503373ffffffffffffffffffffffffffffffffffffffff166108fc829081150290604051600060405180830381858888f193505050501515611b3157600080fd5b7ff341246adaac6f497bc2a656f546ab9e182111d630394f0c57c710a59a2cb56760003383600560008073ffffffffffffffffffffffffffffffffffffffff16815260200190815260200160002060003373ffffffffffffffffffffffffffffffffffffffff1673ffffffffffffffffffffffffffffffffffffffff16815260200190815260200160002054604051808573ffffffffffffffffffffffffffffffffffffffff1681526020018473ffffffffffffffffffffffffffffffffffffffff1673ffffffffffffffffffffffffffffffffffffffff16815260200183815260200182815260200194505050505060405180910390a150565b60008273ffffffffffffffffffffffffffffffffffffffff1614151515611c5257600080fd5b6001600460006101000a81548160ff0219169083151502179055508173ffffffffffffffffffffffffffffffffffffffff166323b872dd3330846000604051602001526040518463ffffffff167c0100000000000000000000000000000000000000000000000000000000028152600401808473ffffffffffffffffffffffffffffffffffffffff1673ffffffffffffffffffffffffffffffffffffffff1681526020018373ffffffffffffffffffffffffffffffffffffffff1673ffffffffffffffffffffffffffffffffffffffff1681526020018281526020019350505050602060405180830381600087803b1515611d4c57600080fd5b6102c65a03f11515611d5d57600080fd5b505050604051805190501515611d7257600080fd5b6000600460006101000a81548160ff021916908315150217905550611e1c81600560008573ffffffffffffffffffffffffffffffffffffffff1673ffffffffffffffffffffffffffffffffffffffff16815260200190815260200160002060003373ffffffffffffffffffffffffffffffffffffffff1673ffffffffffffffffffffffffffffffffffffffff168152602001908152602001600020546139cb90919063ffffffff16565b600560008473ffffffffffffffffffffffffffffffffffffffff1673ffffffffffffffffffffffffffffffffffffffff16815260200190815260200160002060003373ffffffffffffffffffffffffffffffffffffffff1673ffffffffffffffffffffffffffffffffffffffff168152602001908152602001600020819055507fdcbc1c05240f31ff3ad067ef1ee35ce4997762752e3a095284754544f4c709d7823383600560008773ffffffffffffffffffffffffffffffffffffffff1673ffffffffffffffffffffffffffffffffffffffff16815260200190815260200160002060003373ffffffffffffffffffffffffffffffffffffffff1673ffffffffffffffffffffffffffffffffffffffff16815260200190815260200160002054604051808573ffffffffffffffffffffffffffffffffffffffff1673ffffffffffffffffffffffffffffffffffffffff1681526020018473ffffffffffffffffffffffffffffffffffffffff1673ffffffffffffffffffffffffffffffffffffffff16815260200183815260200182815260200194505050505060405180910390a15050565b600073ffffffffffffffffffffffffffffffffffffffff168373ffffffffffffffffffffffffffffffffffffffff1614151515611fff57600080fd5b600073ffffffffffffffffffffffffffffffffffffffff168173ffffffffffffffffffffffffffffffffffffffff161415151561203b57600080fd5b60008211151561204a57600080fd5b6001600460006101000a81548160ff0219169083151502179055508273ffffffffffffffffffffffffffffffffffffffff166323b872dd3330856000604051602001526040518463ffffffff167c0100000000000000000000000000000000000000000000000000000000028152600401808473ffffffffffffffffffffffffffffffffffffffff1673ffffffffffffffffffffffffffffffffffffffff1681526020018373ffffffffffffffffffffffffffffffffffffffff1673ffffffffffffffffffffffffffffffffffffffff1681526020018281526020019350505050602060405180830381600087803b151561214457600080fd5b6102c65a03f1151561215557600080fd5b50505060405180519050151561216a57600080fd5b6000600460006101000a81548160ff02191690831515021790555061221482600560008673ffffffffffffffffffffffffffffffffffffffff1673ffffffffffffffffffffffffffffffffffffffff16815260200190815260200160002060008473ffffffffffffffffffffffffffffffffffffffff1673ffffffffffffffffffffffffffffffffffffffff168152602001908152602001600020546139cb90919063ffffffff16565b600560008573ffffffffffffffffffffffffffffffffffffffff1673ffffffffffffffffffffffffffffffffffffffff16815260200190815260200160002060008373ffffffffffffffffffffffffffffffffffffffff1673ffffffffffffffffffffffffffffffffffffffff16815260200190815260200160002081905550505050565b6000806002308d8d8d8d8d8d600060405160200152604051808873ffffffffffffffffffffffffffffffffffffffff1673ffffffffffffffffffffffffffffffffffffffff166c010000000000000000000000000281526014018773ffffffffffffffffffffffffffffffffffffffff1673ffffffffffffffffffffffffffffffffffffffff166c010000000000000000000000000281526014018681526020018573ffffffffffffffffffffffffffffffffffffffff1673ffffffffffffffffffffffffffffffffffffffff166c0100000000000000000000000002815260140184815260200183815260200182815260200197505050505050505060206040518083038160008661646e5a03f115156123b357600080fd5b5050604051805190509050600760008773ffffffffffffffffffffffffffffffffffffffff1673ffffffffffffffffffffffffffffffffffffffff16815260200190815260200160002060008260001916600019168152602001908152602001600020549150509a9950505050505050505050565b6005602052816000526040600020602052806000526040600020600091509150505481565b60008060008060008073ffffffffffffffffffffffffffffffffffffffff168773ffffffffffffffffffffffffffffffffffffffff161415151561249057600080fd5b869450600560008073ffffffffffffffffffffffffffffffffffffffff16815260200190815260200160002060003373ffffffffffffffffffffffffffffffffffffffff1673ffffffffffffffffffffffffffffffffffffffff1681526020019081526020016000205493506000841115612621576000600560008073ffffffffffffffffffffffffffffffffffffffff16815260200190815260200160002060003373ffffffffffffffffffffffffffffffffffffffff1673ffffffffffffffffffffffffffffffffffffffff168152602001908152602001600020819055508473ffffffffffffffffffffffffffffffffffffffff16636a523c5e85336040518363ffffffff167c0100000000000000000000000000000000000000000000000000000000028152600401808273ffffffffffffffffffffffffffffffffffffffff1673ffffffffffffffffffffffffffffffffffffffff1681526020019150506000604051808303818588803b151561260b57600080fd5b6125ee5a03f1151561261c57600080fd5b505050505b600092505b85518361ffff16101561296157858361ffff1681518110151561264557fe5b906020019060200201519150600073ffffffffffffffffffffffffffffffffffffffff168273ffffffffffffffffffffffffffffffffffffffff161415151561268d57600080fd5b600560008373ffffffffffffffffffffffffffffffffffffffff1673ffffffffffffffffffffffffffffffffffffffff16815260200190815260200160002060003373ffffffffffffffffffffffffffffffffffffffff1673ffffffffffffffffffffffffffffffffffffffff168152602001908152602001600020549050600081141515612954578173ffffffffffffffffffffffffffffffffffffffff1663095ea7b386836000604051602001526040518363ffffffff167c0100000000000000000000000000000000000000000000000000000000028152600401808373ffffffffffffffffffffffffffffffffffffffff1673ffffffffffffffffffffffffffffffffffffffff16815260200182815260200192505050602060405180830381600087803b15156127c157600080fd5b6102c65a03f115156127d257600080fd5b5050506040518051905015156127e757600080fd5b6000600560008473ffffffffffffffffffffffffffffffffffffffff1673ffffffffffffffffffffffffffffffffffffffff16815260200190815260200160002060003373ffffffffffffffffffffffffffffffffffffffff1673ffffffffffffffffffffffffffffffffffffffff168152602001908152602001600020819055508473ffffffffffffffffffffffffffffffffffffffff16633c2e2a758383336040518463ffffffff167c0100000000000000000000000000000000000000000000000000000000028152600401808473ffffffffffffffffffffffffffffffffffffffff1673ffffffffffffffffffffffffffffffffffffffff1681526020018381526020018273ffffffffffffffffffffffffffffffffffffffff1673ffffffffffffffffffffffffffffffffffffffff1681526020019350505050600060405180830381600087803b151561293f57600080fd5b6102c65a03f1151561295057600080fd5b5050505b8280600101935050612626565b7f0cd41587e1fdc62ecf8d0627f78a2e52dfb0ac9116b3c84027ce99ba7c2a198a3388604051808373ffffffffffffffffffffffffffffffffffffffff1673ffffffffffffffffffffffffffffffffffffffff1681526020018273ffffffffffffffffffffffffffffffffffffffff1673ffffffffffffffffffffffffffffffffffffffff1681526020019250505060405180910390a150505050505050565b600960149054906101000a900461ffff1681565b600160009054906101000a900473ffffffffffffffffffffffffffffffffffffffff1681565b600073ffffffffffffffffffffffffffffffffffffffff168173ffffffffffffffffffffffffffffffffffffffff1614151515612a7757600080fd5b600034111515612a8657600080fd5b612aff34600560008073ffffffffffffffffffffffffffffffffffffffff16815260200190815260200160002060008473ffffffffffffffffffffffffffffffffffffffff1673ffffffffffffffffffffffffffffffffffffffff168152602001908152602001600020546139cb90919063ffffffff16565b600560008073ffffffffffffffffffffffffffffffffffffffff16815260200190815260200160002060008373ffffffffffffffffffffffffffffffffffffffff1673ffffffffffffffffffffffffffffffffffffffff1681526020019081526020016000208190555050565b600082600560008f73ffffffffffffffffffffffffffffffffffffffff1673ffffffffffffffffffffffffffffffffffffffff16815260200190815260200160002060008473ffffffffffffffffffffffffffffffffffffffff1673ffffffffffffffffffffffffffffffffffffffff1681526020019081526020016000205410158015612c0b575082612c088e8e8e8e8e8e8e8e8e8e613577565b10155b1515612c1a5760009050612c1f565b600190505b9c9b505050505050505050505050565b600960009054906101000a900473ffffffffffffffffffffffffffffffffffffffff1681565b6000809054906101000a900473ffffffffffffffffffffffffffffffffffffffff1673ffffffffffffffffffffffffffffffffffffffff163373ffffffffffffffffffffffffffffffffffffffff16141515612cb057600080fd5b80600160006101000a81548173ffffffffffffffffffffffffffffffffffffffff021916908373ffffffffffffffffffffffffffffffffffffffff16021790555050565b6000809054906101000a900473ffffffffffffffffffffffffffffffffffffffff1673ffffffffffffffffffffffffffffffffffffffff163373ffffffffffffffffffffffffffffffffffffffff16141515612d4f57600080fd5b6002548111151515612d6057600080fd5b8060028190555050565b6000809054906101000a900473ffffffffffffffffffffffffffffffffffffffff1673ffffffffffffffffffffffffffffffffffffffff163373ffffffffffffffffffffffffffffffffffffffff16141515612dc557600080fd5b600073ffffffffffffffffffffffffffffffffffffffff168173ffffffffffffffffffffffffffffffffffffffff1614151515612e0157600080fd5b806000806101000a81548173ffffffffffffffffffffffffffffffffffffffff021916908373ffffffffffffffffffffffffffffffffffffffff16021790555050565b60008273ffffffffffffffffffffffffffffffffffffffff1614151515612e6a57600080fd5b80600560008473ffffffffffffffffffffffffffffffffffffffff1673ffffffffffffffffffffffffffffffffffffffff16815260200190815260200160002060003373ffffffffffffffffffffffffffffffffffffffff1673ffffffffffffffffffffffffffffffffffffffff1681526020019081526020016000205410151515612ef557600080fd5b612f8481600560008573ffffffffffffffffffffffffffffffffffffffff1673ffffffffffffffffffffffffffffffffffffffff16815260200190815260200160002060003373ffffffffffffffffffffffffffffffffffffffff1673ffffffffffffffffffffffffffffffffffffffff1681526020019081526020016000205461405e90919063ffffffff16565b600560008473ffffffffffffffffffffffffffffffffffffffff1673ffffffffffffffffffffffffffffffffffffffff16815260200190815260200160002060003373ffffffffffffffffffffffffffffffffffffffff1673ffffffffffffffffffffffffffffffffffffffff168152602001908152602001600020819055508173ffffffffffffffffffffffffffffffffffffffff1663a9059cbb33836000604051602001526040518363ffffffff167c0100000000000000000000000000000000000000000000000000000000028152600401808373ffffffffffffffffffffffffffffffffffffffff1673ffffffffffffffffffffffffffffffffffffffff16815260200182815260200192505050602060405180830381600087803b15156130af57600080fd5b6102c65a03f115156130c057600080fd5b5050506040518051905015156130d557600080fd5b7ff341246adaac6f497bc2a656f546ab9e182111d630394f0c57c710a59a2cb567823383600560008773ffffffffffffffffffffffffffffffffffffffff1673ffffffffffffffffffffffffffffffffffffffff16815260200190815260200160002060003373ffffffffffffffffffffffffffffffffffffffff1673ffffffffffffffffffffffffffffffffffffffff16815260200190815260200160002054604051808573ffffffffffffffffffffffffffffffffffffffff1673ffffffffffffffffffffffffffffffffffffffff1681526020018473ffffffffffffffffffffffffffffffffffffffff1673ffffffffffffffffffffffffffffffffffffffff16815260200183815260200182815260200194505050505060405180910390a15050565b6000809054906101000a900473ffffffffffffffffffffffffffffffffffffffff1673ffffffffffffffffffffffffffffffffffffffff163373ffffffffffffffffffffffffffffffffffffffff1614151561325757600080fd5b8060038190555050565b600860009054906101000a900473ffffffffffffffffffffffffffffffffffffffff1681565b60066020528160005260406000206020528060005260406000206000915091509054906101000a900460ff1681565b6000600460009054906101000a900460ff16156132d657600190506132db565b600080fd5b9392505050565b60025481565b61336134600560008073ffffffffffffffffffffffffffffffffffffffff16815260200190815260200160002060003373ffffffffffffffffffffffffffffffffffffffff1673ffffffffffffffffffffffffffffffffffffffff168152602001908152602001600020546139cb90919063ffffffff16565b600560008073ffffffffffffffffffffffffffffffffffffffff16815260200190815260200160002060003373ffffffffffffffffffffffffffffffffffffffff1673ffffffffffffffffffffffffffffffffffffffff168152602001908152602001600020819055507fdcbc1c05240f31ff3ad067ef1ee35ce4997762752e3a095284754544f4c709d760003334600560008073ffffffffffffffffffffffffffffffffffffffff16815260200190815260200160002060003373ffffffffffffffffffffffffffffffffffffffff1673ffffffffffffffffffffffffffffffffffffffff16815260200190815260200160002054604051808573ffffffffffffffffffffffffffffffffffffffff1681526020018473ffffffffffffffffffffffffffffffffffffffff1673ffffffffffffffffffffffffffffffffffffffff16815260200183815260200182815260200194505050505060405180910390a1565b6000600560008473ffffffffffffffffffffffffffffffffffffffff1673ffffffffffffffffffffffffffffffffffffffff16815260200190815260200160002060008373ffffffffffffffffffffffffffffffffffffffff1673ffffffffffffffffffffffffffffffffffffffff16815260200190815260200160002054905092915050565b6000809054906101000a900473ffffffffffffffffffffffffffffffffffffffff1681565b60035481565b6000806135826140a4565b6002308e8e8e8e8e8e600060405160200152604051808873ffffffffffffffffffffffffffffffffffffffff1673ffffffffffffffffffffffffffffffffffffffff166c010000000000000000000000000281526014018773ffffffffffffffffffffffffffffffffffffffff1673ffffffffffffffffffffffffffffffffffffffff166c010000000000000000000000000281526014018681526020018573ffffffffffffffffffffffffffffffffffffffff1673ffffffffffffffffffffffffffffffffffffffff166c0100000000000000000000000002815260140184815260200183815260200182815260200197505050505050505060206040518083038160008661646e5a03f1151561369957600080fd5b5050604051805190509150600660008873ffffffffffffffffffffffffffffffffffffffff1673ffffffffffffffffffffffffffffffffffffffff1681526020019081526020016000206000836000191660001916815260200190815260200160002060009054906101000a900460ff168061380b57508673ffffffffffffffffffffffffffffffffffffffff1660018360405180807f19457468657265756d205369676e6564204d6573736167653a0a333200000000815250601c0182600019166000191681526020019150506040518091039020888888604051600081526020016040526000604051602001526040518085600019166000191681526020018460ff1660ff16815260200183600019166000191681526020018260001916600019168152602001945050505050602060405160208103908084039060008661646e5a03f115156137ea57600080fd5b50506020604051035173ffffffffffffffffffffffffffffffffffffffff16145b80156138175750884311155b151561382657600092506139bb565b613891600760008973ffffffffffffffffffffffffffffffffffffffff1673ffffffffffffffffffffffffffffffffffffffff16815260200190815260200160002060008460001916600019168152602001908152602001600020548d61405e90919063ffffffff16565b8160006002811015156138a057fe5b602002018181525050896139398d600560008f73ffffffffffffffffffffffffffffffffffffffff1673ffffffffffffffffffffffffffffffffffffffff16815260200190815260200160002060008b73ffffffffffffffffffffffffffffffffffffffff1673ffffffffffffffffffffffffffffffffffffffff1681526020019081526020016000205461402090919063ffffffff16565b81151561394257fe5b0481600160028110151561395257fe5b60200201818152505080600160028110151561396a57fe5b602002015181600060028110151561397e57fe5b602002015110156139a45780600060028110151561399857fe5b602002015192506139bb565b8060016002811015156139b357fe5b602002015192505b50509a9950505050505050505050565b60008082840190508381101515156139e257600080fd5b8091505092915050565b600080905060035442101515613a2e57613a2b670de0b6b3a7640000613a1d6002548561402090919063ffffffff16565b61407a90919063ffffffff16565b90505b613acf613a4482846139cb90919063ffffffff16565b600560008a73ffffffffffffffffffffffffffffffffffffffff1673ffffffffffffffffffffffffffffffffffffffff16815260200190815260200160002060003373ffffffffffffffffffffffffffffffffffffffff1673ffffffffffffffffffffffffffffffffffffffff1681526020019081526020016000205461405e90919063ffffffff16565b600560008973ffffffffffffffffffffffffffffffffffffffff1673ffffffffffffffffffffffffffffffffffffffff16815260200190815260200160002060003373ffffffffffffffffffffffffffffffffffffffff1673ffffffffffffffffffffffffffffffffffffffff16815260200190815260200160002081905550613bde82600560008a73ffffffffffffffffffffffffffffffffffffffff1673ffffffffffffffffffffffffffffffffffffffff16815260200190815260200160002060008673ffffffffffffffffffffffffffffffffffffffff1673ffffffffffffffffffffffffffffffffffffffff168152602001908152602001600020546139cb90919063ffffffff16565b600560008973ffffffffffffffffffffffffffffffffffffffff1673ffffffffffffffffffffffffffffffffffffffff16815260200190815260200160002060008573ffffffffffffffffffffffffffffffffffffffff1673ffffffffffffffffffffffffffffffffffffffff16815260200190815260200160002081905550613d0f81600560008a73ffffffffffffffffffffffffffffffffffffffff1673ffffffffffffffffffffffffffffffffffffffff1681526020019081526020016000206000600160009054906101000a900473ffffffffffffffffffffffffffffffffffffffff1673ffffffffffffffffffffffffffffffffffffffff1673ffffffffffffffffffffffffffffffffffffffff168152602001908152602001600020546139cb90919063ffffffff16565b600560008973ffffffffffffffffffffffffffffffffffffffff1673ffffffffffffffffffffffffffffffffffffffff1681526020019081526020016000206000600160009054906101000a900473ffffffffffffffffffffffffffffffffffffffff1673ffffffffffffffffffffffffffffffffffffffff1673ffffffffffffffffffffffffffffffffffffffff16815260200190815260200160002081905550613e64613dd987613dcb858861402090919063ffffffff16565b61407a90919063ffffffff16565b600560008873ffffffffffffffffffffffffffffffffffffffff1673ffffffffffffffffffffffffffffffffffffffff16815260200190815260200160002060008673ffffffffffffffffffffffffffffffffffffffff1673ffffffffffffffffffffffffffffffffffffffff1681526020019081526020016000205461405e90919063ffffffff16565b600560008773ffffffffffffffffffffffffffffffffffffffff1673ffffffffffffffffffffffffffffffffffffffff16815260200190815260200160002060008573ffffffffffffffffffffffffffffffffffffffff1673ffffffffffffffffffffffffffffffffffffffff16815260200190815260200160002081905550613f97613f0c87613efe858861402090919063ffffffff16565b61407a90919063ffffffff16565b600560008873ffffffffffffffffffffffffffffffffffffffff1673ffffffffffffffffffffffffffffffffffffffff16815260200190815260200160002060003373ffffffffffffffffffffffffffffffffffffffff1673ffffffffffffffffffffffffffffffffffffffff168152602001908152602001600020546139cb90919063ffffffff16565b600560008773ffffffffffffffffffffffffffffffffffffffff1673ffffffffffffffffffffffffffffffffffffffff16815260200190815260200160002060003373ffffffffffffffffffffffffffffffffffffffff1673ffffffffffffffffffffffffffffffffffffffff1681526020019081526020016000208190555050505050505050565b60008060008414156140355760009150614057565b828402905082848281151561404657fe5b0414151561405357600080fd5b8091505b5092915050565b600082821115151561406f57600080fd5b818303905092915050565b60008060008311151561408c57600080fd5b828481151561409757fe5b0490508091505092915050565b60408051908101604052806002905b60008152602001906001900390816140b357905050905600a165627a7a7230582046551ed667e5d88c64269847f10ec36c313c8ce4ea9b510e666b6ceb4709f1670029",
  "source": "pragma solidity 0.4.19;\n\nimport \"./IToken.sol\";\nimport \"./LSafeMath.sol\";\n\n/**\n * @title ForkDelta\n * @dev This is the main contract for the ForkDelta exchange.\n */\ncontract ForkDelta {\n  \n  using LSafeMath for uint;\n\n  /// Variables\n  address public admin; // the admin address\n  address public feeAccount; // the account that will receive fees\n  uint public feeTake; // percentage times (1 ether)\n  uint public freeUntilDate; // date in UNIX timestamp that trades will be free until\n  bool private depositingTokenFlag; // True when Token.transferFrom is being called from depositToken\n  mapping (address => mapping (address => uint)) public tokens; // mapping of token addresses to mapping of account balances (token=0 means Ether)\n  mapping (address => mapping (bytes32 => bool)) public orders; // mapping of user accounts to mapping of order hashes to booleans (true = submitted by user, equivalent to offchain signature)\n  mapping (address => mapping (bytes32 => uint)) public orderFills; // mapping of user accounts to mapping of order hashes to uints (amount of order that has been filled)\n  address public predecessor; // Address of the previous version of this contract. If address(0), this is the first version\n  address public successor; // Address of the next version of this contract. If address(0), this is the most up to date version.\n  uint16 public version; // This is the version # of the contract\n\n  /// Logging Events\n  event Order(address tokenGet, uint amountGet, address tokenGive, uint amountGive, uint expires, uint nonce, address user);\n  event Cancel(address tokenGet, uint amountGet, address tokenGive, uint amountGive, uint expires, uint nonce, address user, uint8 v, bytes32 r, bytes32 s);\n  event Trade(address tokenGet, uint amountGet, address tokenGive, uint amountGive, address get, address give);\n  event Deposit(address token, address user, uint amount, uint balance);\n  event Withdraw(address token, address user, uint amount, uint balance);\n  event FundsMigrated(address user, address newContract);\n\n  /// This is a modifier for functions to check if the sending user address is the same as the admin user address.\n  modifier isAdmin() {\n      require(msg.sender == admin);\n      _;\n  }\n\n  /// Constructor function. This is only called on contract creation.\n  function ForkDelta(address admin_, address feeAccount_, uint feeTake_, uint freeUntilDate_, address predecessor_) public {\n    admin = admin_;\n    feeAccount = feeAccount_;\n    feeTake = feeTake_;\n    freeUntilDate = freeUntilDate_;\n    depositingTokenFlag = false;\n    predecessor = predecessor_;\n    \n    if (predecessor != address(0)) {\n      version = ForkDelta(predecessor).version() + 1;\n    } else {\n      version = 1;\n    }\n  }\n\n  /// The fallback function. Ether transfered into the contract is not accepted.\n  function() public {\n    revert();\n  }\n\n  /// Changes the official admin user address. Accepts Ethereum address.\n  function changeAdmin(address admin_) public isAdmin {\n    require(admin_ != address(0));\n    admin = admin_;\n  }\n\n  /// Changes the account address that receives trading fees. Accepts Ethereum address.\n  function changeFeeAccount(address feeAccount_) public isAdmin {\n    feeAccount = feeAccount_;\n  }\n\n  /// Changes the fee on takes. Can only be changed to a value less than it is currently set at.\n  function changeFeeTake(uint feeTake_) public isAdmin {\n    require(feeTake_ <= feeTake);\n    feeTake = feeTake_;\n  }\n\n  /// Changes the date that trades are free until. Accepts UNIX timestamp.\n  function changeFreeUntilDate(uint freeUntilDate_) public isAdmin {\n    freeUntilDate = freeUntilDate_;\n  }\n  \n  /// Changes the successor. Used in updating the contract.\n  function setSuccessor(address successor_) public isAdmin {\n    require(successor_ != address(0));\n    successor = successor_;\n  }\n  \n  ////////////////////////////////////////////////////////////////////////////////\n  // Deposits, Withdrawals, Balances\n  ////////////////////////////////////////////////////////////////////////////////\n\n  /**\n  * This function handles deposits of Ether into the contract.\n  * Emits a Deposit event.\n  * Note: With the payable modifier, this function accepts Ether.\n  */\n  function deposit() public payable {\n    tokens[0][msg.sender] = tokens[0][msg.sender].add(msg.value);\n    Deposit(0, msg.sender, msg.value, tokens[0][msg.sender]);\n  }\n\n  /**\n  * This function handles withdrawals of Ether from the contract.\n  * Verifies that the user has enough funds to cover the withdrawal.\n  * Emits a Withdraw event.\n  * @param amount uint of the amount of Ether the user wishes to withdraw\n  */\n  function withdraw(uint amount) public {\n    require(tokens[0][msg.sender] >= amount);\n    tokens[0][msg.sender] = tokens[0][msg.sender].sub(amount);\n    msg.sender.transfer(amount);\n    Withdraw(0, msg.sender, amount, tokens[0][msg.sender]);\n  }\n\n  /**\n  * This function handles deposits of Ethereum based tokens to the contract.\n  * Does not allow Ether.\n  * If token transfer fails, transaction is reverted and remaining gas is refunded.\n  * Emits a Deposit event.\n  * Note: Remember to call Token(address).approve(this, amount) or this contract will not be able to do the transfer on your behalf.\n  * @param token Ethereum contract address of the token or 0 for Ether\n  * @param amount uint of the amount of the token the user wishes to deposit\n  */\n  function depositToken(address token, uint amount) public {\n    require(token != 0);\n    depositingTokenFlag = true;\n    require(IToken(token).transferFrom(msg.sender, this, amount));\n    depositingTokenFlag = false;\n    tokens[token][msg.sender] = tokens[token][msg.sender].add(amount);\n    Deposit(token, msg.sender, amount, tokens[token][msg.sender]);\n }\n\n  /**\n  * This function provides a fallback solution as outlined in ERC223.\n  * If tokens are deposited through depositToken(), the transaction will continue.\n  * If tokens are sent directly to this contract, the transaction is reverted.\n  * @param sender Ethereum address of the sender of the token\n  * @param amount amount of the incoming tokens\n  * @param data attached data similar to msg.data of Ether transactions\n  */\n  function tokenFallback( address sender, uint amount, bytes data) public returns (bool ok) {\n      if (depositingTokenFlag) {\n        // Transfer was initiated from depositToken(). User token balance will be updated there.\n        return true;\n      } else {\n        // Direct ECR223 Token.transfer into this contract not allowed, to keep it consistent\n        // with direct transfers of ECR20 and ETH.\n        revert();\n      }\n  }\n  \n  /**\n  * This function handles withdrawals of Ethereum based tokens from the contract.\n  * Does not allow Ether.\n  * If token transfer fails, transaction is reverted and remaining gas is refunded.\n  * Emits a Withdraw event.\n  * @param token Ethereum contract address of the token or 0 for Ether\n  * @param amount uint of the amount of the token the user wishes to withdraw\n  */\n  function withdrawToken(address token, uint amount) public {\n    require(token != 0);\n    require(tokens[token][msg.sender] >= amount);\n    tokens[token][msg.sender] = tokens[token][msg.sender].sub(amount);\n    require(IToken(token).transfer(msg.sender, amount));\n    Withdraw(token, msg.sender, amount, tokens[token][msg.sender]);\n  }\n\n  /**\n  * Retrieves the balance of a token based on a user address and token address.\n  * @param token Ethereum contract address of the token or 0 for Ether\n  * @param user Ethereum address of the user\n  * @return the amount of tokens on the exchange for a given user address\n  */\n  function balanceOf(address token, address user) public constant returns (uint) {\n    return tokens[token][user];\n  }\n\n  ////////////////////////////////////////////////////////////////////////////////\n  // Trading\n  ////////////////////////////////////////////////////////////////////////////////\n\n  /**\n  * Stores the active order inside of the contract.\n  * Emits an Order event.\n  * Note: tokenGet & tokenGive can be the Ethereum contract address.\n  * @param tokenGet Ethereum contract address of the token to receive\n  * @param amountGet uint amount of tokens being received\n  * @param tokenGive Ethereum contract address of the token to give\n  * @param amountGive uint amount of tokens being given\n  * @param expires uint of block number when this order should expire\n  * @param nonce arbitrary random number\n  */\n  function order(address tokenGet, uint amountGet, address tokenGive, uint amountGive, uint expires, uint nonce) public {\n    bytes32 hash = sha256(this, tokenGet, amountGet, tokenGive, amountGive, expires, nonce);\n    orders[msg.sender][hash] = true;\n    Order(tokenGet, amountGet, tokenGive, amountGive, expires, nonce, msg.sender);\n  }\n\n  /**\n  * Facilitates a trade from one user to another.\n  * Requires that the transaction is signed properly, the trade isn't past its expiration, and all funds are present to fill the trade.\n  * Calls tradeBalances().\n  * Updates orderFills with the amount traded.\n  * Emits a Trade event.\n  * Note: tokenGet & tokenGive can be the Ethereum contract address.\n  * Note: amount is in amountGet / tokenGet terms.\n  * @param tokenGet Ethereum contract address of the token to receive\n  * @param amountGet uint amount of tokens being received\n  * @param tokenGive Ethereum contract address of the token to give\n  * @param amountGive uint amount of tokens being given\n  * @param expires uint of block number when this order should expire\n  * @param nonce arbitrary random number\n  * @param user Ethereum address of the user who placed the order\n  * @param v part of signature for the order hash as signed by user\n  * @param r part of signature for the order hash as signed by user\n  * @param s part of signature for the order hash as signed by user\n  * @param amount uint amount in terms of tokenGet that will be \"buy\" in the trade\n  */\n  function trade(address tokenGet, uint amountGet, address tokenGive, uint amountGive, uint expires, uint nonce, address user, uint8 v, bytes32 r, bytes32 s, uint amount) public {\n    bytes32 hash = sha256(this, tokenGet, amountGet, tokenGive, amountGive, expires, nonce);\n    require((\n      (orders[user][hash] || ecrecover(keccak256(\"\\x19Ethereum Signed Message:\\n32\", hash), v, r, s) == user) &&\n      block.number <= expires &&\n      orderFills[user][hash].add(amount) <= amountGet\n    ));\n    tradeBalances(tokenGet, amountGet, tokenGive, amountGive, user, amount);\n    orderFills[user][hash] = orderFills[user][hash].add(amount);\n    Trade(tokenGet, amount, tokenGive, amountGive.mul(amount) / amountGet, user, msg.sender);\n  }\n\n  /**\n  * This is a private function and is only being called from trade().\n  * Handles the movement of funds when a trade occurs.\n  * Takes fees.\n  * Updates token balances for both buyer and seller.\n  * Note: tokenGet & tokenGive can be the Ethereum contract address.\n  * Note: amount is in amountGet / tokenGet terms.\n  * @param tokenGet Ethereum contract address of the token to receive\n  * @param amountGet uint amount of tokens being received\n  * @param tokenGive Ethereum contract address of the token to give\n  * @param amountGive uint amount of tokens being given\n  * @param user Ethereum address of the user who placed the order\n  * @param amount uint amount in terms of tokenGet that will be \"buy\" in the trade\n  */\n  function tradeBalances(address tokenGet, uint amountGet, address tokenGive, uint amountGive, address user, uint amount) private {\n    \n    uint feeTakeXfer = 0;\n    \n    if (now >= freeUntilDate) {\n      feeTakeXfer = amount.mul(feeTake).div(1 ether);\n    }\n    \n    tokens[tokenGet][msg.sender] = tokens[tokenGet][msg.sender].sub(amount.add(feeTakeXfer));\n    tokens[tokenGet][user] = tokens[tokenGet][user].add(amount);\n    tokens[tokenGet][feeAccount] = tokens[tokenGet][feeAccount].add(feeTakeXfer);\n    tokens[tokenGive][user] = tokens[tokenGive][user].sub(amountGive.mul(amount).div(amountGet));\n    tokens[tokenGive][msg.sender] = tokens[tokenGive][msg.sender].add(amountGive.mul(amount).div(amountGet));\n  }\n\n  /**\n  * This function is to test if a trade would go through.\n  * Note: tokenGet & tokenGive can be the Ethereum contract address.\n  * Note: amount is in amountGet / tokenGet terms.\n  * @param tokenGet Ethereum contract address of the token to receive\n  * @param amountGet uint amount of tokens being received\n  * @param tokenGive Ethereum contract address of the token to give\n  * @param amountGive uint amount of tokens being given\n  * @param expires uint of block number when this order should expire\n  * @param nonce arbitrary random number\n  * @param user Ethereum address of the user who placed the order\n  * @param v part of signature for the order hash as signed by user\n  * @param r part of signature for the order hash as signed by user\n  * @param s part of signature for the order hash as signed by user\n  * @param amount uint amount in terms of tokenGet that will be \"buy\" in the trade\n  * @param sender Ethereum address of the user taking the order\n  * @return bool: true if the trade would be successful, false otherwise\n  */\n  function testTrade(address tokenGet, uint amountGet, address tokenGive, uint amountGive, uint expires, uint nonce, address user, uint8 v, bytes32 r, bytes32 s, uint amount, address sender) public constant returns(bool) {\n    if (!(\n      tokens[tokenGet][sender] >= amount &&\n      availableVolume(tokenGet, amountGet, tokenGive, amountGive, expires, nonce, user, v, r, s) >= amount\n      )) { \n      return false;\n    } else {\n      return true;\n    }\n  }\n\n  /**\n  * This function checks the available volume for a given order.\n  * Note: tokenGet & tokenGive can be the Ethereum contract address.\n  * @param tokenGet Ethereum contract address of the token to receive\n  * @param amountGet uint amount of tokens being received\n  * @param tokenGive Ethereum contract address of the token to give\n  * @param amountGive uint amount of tokens being given\n  * @param expires uint of block number when this order should expire\n  * @param nonce arbitrary random number\n  * @param user Ethereum address of the user who placed the order\n  * @param v part of signature for the order hash as signed by user\n  * @param r part of signature for the order hash as signed by user\n  * @param s part of signature for the order hash as signed by user\n  * @return uint: amount of volume available for the given order in terms of amountGet / tokenGet\n  */\n  function availableVolume(address tokenGet, uint amountGet, address tokenGive, uint amountGive, uint expires, uint nonce, address user, uint8 v, bytes32 r, bytes32 s) public constant returns(uint) {\n    bytes32 hash = sha256(this, tokenGet, amountGet, tokenGive, amountGive, expires, nonce);\n    if (!(\n      (orders[user][hash] || ecrecover(keccak256(\"\\x19Ethereum Signed Message:\\n32\", hash), v, r, s) == user) &&\n      block.number <= expires\n      )) {\n      return 0;\n    }\n    uint[2] memory available;\n    available[0] = amountGet.sub(orderFills[user][hash]);\n    available[1] = tokens[tokenGive][user].mul(amountGet) / amountGive;\n    if (available[0] < available[1]) {\n      return available[0];\n    } else {\n      return available[1];\n    }\n  }\n\n  /**\n  * This function checks the amount of an order that has already been filled.\n  * Note: tokenGet & tokenGive can be the Ethereum contract address.\n  * @param tokenGet Ethereum contract address of the token to receive\n  * @param amountGet uint amount of tokens being received\n  * @param tokenGive Ethereum contract address of the token to give\n  * @param amountGive uint amount of tokens being given\n  * @param expires uint of block number when this order should expire\n  * @param nonce arbitrary random number\n  * @param user Ethereum address of the user who placed the order\n  * @param v part of signature for the order hash as signed by user\n  * @param r part of signature for the order hash as signed by user\n  * @param s part of signature for the order hash as signed by user\n  * @return uint: amount of the given order that has already been filled in terms of amountGet / tokenGet\n  */\n  function amountFilled(address tokenGet, uint amountGet, address tokenGive, uint amountGive, uint expires, uint nonce, address user, uint8 v, bytes32 r, bytes32 s) public constant returns(uint) {\n    bytes32 hash = sha256(this, tokenGet, amountGet, tokenGive, amountGive, expires, nonce);\n    return orderFills[user][hash];\n  }\n\n  /**\n  * This function cancels a given order by editing its fill data to the full amount.\n  * Requires that the transaction is signed properly.\n  * Updates orderFills to the full amountGet\n  * Emits a Cancel event.\n  * Note: tokenGet & tokenGive can be the Ethereum contract address.\n  * @param tokenGet Ethereum contract address of the token to receive\n  * @param amountGet uint amount of tokens being received\n  * @param tokenGive Ethereum contract address of the token to give\n  * @param amountGive uint amount of tokens being given\n  * @param expires uint of block number when this order should expire\n  * @param nonce arbitrary random number\n  * @param v part of signature for the order hash as signed by user\n  * @param r part of signature for the order hash as signed by user\n  * @param s part of signature for the order hash as signed by user\n  * @return uint: amount of the given order that has already been filled in terms of amountGet / tokenGet\n  */\n  function cancelOrder(address tokenGet, uint amountGet, address tokenGive, uint amountGive, uint expires, uint nonce, uint8 v, bytes32 r, bytes32 s) public {\n    bytes32 hash = sha256(this, tokenGet, amountGet, tokenGive, amountGive, expires, nonce);\n    require ((orders[msg.sender][hash] || ecrecover(keccak256(\"\\x19Ethereum Signed Message:\\n32\", hash), v, r, s) == msg.sender));\n    orderFills[msg.sender][hash] = amountGet;\n    Cancel(tokenGet, amountGet, tokenGive, amountGive, expires, nonce, msg.sender, v, r, s);\n  }\n\n\n  \n  ////////////////////////////////////////////////////////////////////////////////\n  // Contract Versioning / Migration\n  ////////////////////////////////////////////////////////////////////////////////\n  \n  /**\n  * User triggered function to migrate funds into a new contract to ease updates.\n  * Emits a FundsMigrated event.\n  * @param newContract Contract address of the new contract we are migrating funds to\n  * @param tokens_ Array of token addresses that we will be migrating to the new contract\n  */\n  function migrateFunds(address newContract, address[] tokens_) public {\n  \n    require(newContract != address(0));\n    \n    ForkDelta newExchange = ForkDelta(newContract);\n\n    // Move Ether into new exchange.\n    uint etherAmount = tokens[0][msg.sender];\n    if (etherAmount > 0) {\n      tokens[0][msg.sender] = 0;\n      newExchange.depositForUser.value(etherAmount)(msg.sender);\n    }\n\n    // Move Tokens into new exchange.\n    for (uint16 n = 0; n < tokens_.length; n++) {\n      address token = tokens_[n];\n      require(token != address(0)); // Ether is handled above.\n      uint tokenAmount = tokens[token][msg.sender];\n      \n      if (tokenAmount != 0) {      \n      \trequire(IToken(token).approve(newExchange, tokenAmount));\n      \ttokens[token][msg.sender] = 0;\n      \tnewExchange.depositTokenForUser(token, tokenAmount, msg.sender);\n      }\n    }\n\n    FundsMigrated(msg.sender, newContract);\n  }\n  \n  /**\n  * This function handles deposits of Ether into the contract, but allows specification of a user.\n  * Note: This is generally used in migration of funds.\n  * Note: With the payable modifier, this function accepts Ether.\n  */\n  function depositForUser(address user) public payable {\n    require(user != address(0));\n    require(msg.value > 0);\n    tokens[0][user] = tokens[0][user].add(msg.value);\n  }\n  \n  /**\n  * This function handles deposits of Ethereum based tokens into the contract, but allows specification of a user.\n  * Does not allow Ether.\n  * If token transfer fails, transaction is reverted and remaining gas is refunded.\n  * Note: This is generally used in migration of funds.\n  * Note: Remember to call Token(address).approve(this, amount) or this contract will not be able to do the transfer on your behalf.\n  * @param token Ethereum contract address of the token\n  * @param amount uint of the amount of the token the user wishes to deposit\n  */\n  function depositTokenForUser(address token, uint amount, address user) public {\n    require(token != address(0));\n    require(user != address(0));\n    require(amount > 0);\n    depositingTokenFlag = true;\n    require(IToken(token).transferFrom(msg.sender, this, amount));\n    depositingTokenFlag = false;\n    tokens[token][user] = tokens[token][user].add(amount);\n  }\n  \n}",
  "sourcePath": "/home/squirrel/Projects/migration-tool/smart_contract/contracts/ForkDelta.sol",
  "compiler": {
    "name": "solc",
    "version": "0.4.19+commit.c4cbbb05.Emscripten.clang"
  },
  "schemaVersion": "2.0.0",
  "updatedAt": "2018-04-04T00:59:47.869Z"
}