{
  "contractName": "MigrationUtility",
  "abi": [
    {
      "constant": true,
      "inputs": [
        {
          "name": "",
          "type": "address"
        },
        {
          "name": "",
          "type": "address"
        }
      ],
      "name": "tokenBalances",
      "outputs": [
        {
          "name": "",
          "type": "uint256"
        }
      ],
      "payable": false,
      "stateMutability": "view",
      "type": "function"
    },
    {
      "constant": true,
      "inputs": [],
      "name": "fee",
      "outputs": [
        {
          "name": "",
          "type": "address"
        }
      ],
      "payable": false,
      "stateMutability": "view",
      "type": "function"
    },
    {
      "constant": true,
      "inputs": [],
      "name": "admin",
      "outputs": [
        {
          "name": "",
          "type": "address"
        }
      ],
      "payable": false,
      "stateMutability": "view",
      "type": "function"
    },
    {
      "inputs": [
        {
          "name": "admin_",
          "type": "address"
        },
        {
          "name": "fee_",
          "type": "address"
        }
      ],
      "payable": false,
      "stateMutability": "nonpayable",
      "type": "constructor"
    },
    {
      "constant": false,
      "inputs": [
        {
          "name": "admin_",
          "type": "address"
        }
      ],
      "name": "changeAdmin",
      "outputs": [],
      "payable": false,
      "stateMutability": "nonpayable",
      "type": "function"
    },
    {
      "constant": false,
      "inputs": [
        {
          "name": "exchangeFrom",
          "type": "address"
        },
        {
          "name": "exchangeTo",
          "type": "address"
        },
        {
          "name": "user",
          "type": "address"
        },
        {
          "name": "transferTokens",
          "type": "address[]"
        }
      ],
      "name": "transferEDtoFDBalances",
      "outputs": [],
      "payable": false,
      "stateMutability": "nonpayable",
      "type": "function"
    },
    {
      "constant": true,
      "inputs": [
        {
          "name": "exchange",
          "type": "address"
        },
        {
          "name": "user",
          "type": "address"
        },
        {
          "name": "tokens",
          "type": "address[]"
        }
      ],
      "name": "deltaBalances",
      "outputs": [
        {
          "name": "",
          "type": "uint256[]"
        }
      ],
      "payable": false,
      "stateMutability": "view",
      "type": "function"
    },
    {
      "constant": true,
      "inputs": [
        {
          "name": "exchanges",
          "type": "address[]"
        },
        {
          "name": "user",
          "type": "address"
        },
        {
          "name": "tokens",
          "type": "address[]"
        }
      ],
      "name": "multiDeltaBalances",
      "outputs": [
        {
          "name": "",
          "type": "uint256[]"
        }
      ],
      "payable": false,
      "stateMutability": "view",
      "type": "function"
    },
    {
      "constant": true,
      "inputs": [
        {
          "name": "user",
          "type": "address"
        },
        {
          "name": "token",
          "type": "address"
        }
      ],
      "name": "tokenBalance",
      "outputs": [
        {
          "name": "",
          "type": "uint256"
        }
      ],
      "payable": false,
      "stateMutability": "view",
      "type": "function"
    },
    {
      "constant": true,
      "inputs": [
        {
          "name": "user",
          "type": "address"
        },
        {
          "name": "tokens",
          "type": "address[]"
        }
      ],
      "name": "walletBalances",
      "outputs": [
        {
          "name": "",
          "type": "uint256[]"
        }
      ],
      "payable": false,
      "stateMutability": "view",
      "type": "function"
    }
  ],
  "bytecode": "0x6060604052341561000f57600080fd5b6040516040806114a083398101604052808051906020019091908051906020019091905050816000806101000a81548173ffffffffffffffffffffffffffffffffffffffff021916908373ffffffffffffffffffffffffffffffffffffffff16021790555080600160006101000a81548173ffffffffffffffffffffffffffffffffffffffff021916908373ffffffffffffffffffffffffffffffffffffffff16021790555050506113da806100c66000396000f300606060405260043610610099576000357c0100000000000000000000000000000000000000000000000000000000900463ffffffff1680631049334f1461009e5780634dbf6c5a1461010a57806364422f3c146101765780636fb7fc8b1461028457806377a7d968146103715780638f2839701461043f578063cc36a24414610478578063ddca3f431461052f578063f851a44014610584575b600080fd5b34156100a957600080fd5b6100f4600480803573ffffffffffffffffffffffffffffffffffffffff1690602001909190803573ffffffffffffffffffffffffffffffffffffffff169060200190919050506105d9565b6040518082815260200191505060405180910390f35b341561011557600080fd5b610160600480803573ffffffffffffffffffffffffffffffffffffffff1690602001909190803573ffffffffffffffffffffffffffffffffffffffff169060200190919050506107b6565b6040518082815260200191505060405180910390f35b341561018157600080fd5b61022d60048080359060200190820180359060200190808060200260200160405190810160405280939291908181526020018383602002808284378201915050505050509190803573ffffffffffffffffffffffffffffffffffffffff16906020019091908035906020019082018035906020019080806020026020016040519081016040528093929190818152602001838360200280828437820191505050505050919050506107db565b6040518080602001828103825283818151815260200191508051906020019060200280838360005b83811015610270578082015181840152602081019050610255565b505050509050019250505060405180910390f35b341561028f57600080fd5b61031a600480803573ffffffffffffffffffffffffffffffffffffffff1690602001909190803573ffffffffffffffffffffffffffffffffffffffff169060200190919080359060200190820180359060200190808060200260200160405190810160405280939291908181526020018383602002808284378201915050505050509190505061099d565b6040518080602001828103825283818151815260200191508051906020019060200280838360005b8381101561035d578082015181840152602081019050610342565b505050509050019250505060405180910390f35b341561037c57600080fd5b6103e8600480803573ffffffffffffffffffffffffffffffffffffffff1690602001909190803590602001908201803590602001908080602002602001604051908101604052809392919081815260200183836020028082843782019150505050505091905050610b23565b6040518080602001828103825283818151815260200191508051906020019060200280838360005b8381101561042b578082015181840152602081019050610410565b505050509050019250505060405180910390f35b341561044a57600080fd5b610476600480803573ffffffffffffffffffffffffffffffffffffffff16906020019091905050610c50565b005b341561048357600080fd5b61052d600480803573ffffffffffffffffffffffffffffffffffffffff1690602001909190803573ffffffffffffffffffffffffffffffffffffffff1690602001909190803573ffffffffffffffffffffffffffffffffffffffff1690602001909190803590602001908201803590602001908080602002602001604051908101604052809392919081815260200183836020028082843782019150505050505091905050610d71565b005b341561053a57600080fd5b61054261134f565b604051808273ffffffffffffffffffffffffffffffffffffffff1673ffffffffffffffffffffffffffffffffffffffff16815260200191505060405180910390f35b341561058f57600080fd5b610597611375565b604051808273ffffffffffffffffffffffffffffffffffffffff1673ffffffffffffffffffffffffffffffffffffffff16815260200191505060405180910390f35b6000806000833b915060008211156107a9578390508073ffffffffffffffffffffffffffffffffffffffff1660405180807f62616c616e63654f662861646472657373290000000000000000000000000000815250601201905060405180910390207c01000000000000000000000000000000000000000000000000000000009004866040518263ffffffff167c0100000000000000000000000000000000000000000000000000000000028152600401808273ffffffffffffffffffffffffffffffffffffffff1673ffffffffffffffffffffffffffffffffffffffff16815260200191505060006040518083038160008761646e5a03f192505050156107a0578073ffffffffffffffffffffffffffffffffffffffff166370a08231866000604051602001526040518263ffffffff167c0100000000000000000000000000000000000000000000000000000000028152600401808273ffffffffffffffffffffffffffffffffffffffff1673ffffffffffffffffffffffffffffffffffffffff168152602001915050602060405180830381600087803b151561077e57600080fd5b6102c65a03f1151561078f57600080fd5b5050506040518051905092506107ae565b600092506107ae565b600092505b505092915050565b6002602052816000526040600020602052806000526040600020600091509150505481565b6107e361139a565b6107eb61139a565b600080600087518651026040518059106108025750595b90808252806020026020018201604052509350600092505b875183101561098f57878381518110151561083157fe5b906020019060200201519150600090505b8551811015610982578173ffffffffffffffffffffffffffffffffffffffff1663f7888aec878381518110151561087557fe5b90602001906020020151896000604051602001526040518363ffffffff167c0100000000000000000000000000000000000000000000000000000000028152600401808373ffffffffffffffffffffffffffffffffffffffff1673ffffffffffffffffffffffffffffffffffffffff1681526020018273ffffffffffffffffffffffffffffffffffffffff1673ffffffffffffffffffffffffffffffffffffffff16815260200192505050602060405180830381600087803b151561093957600080fd5b6102c65a03f1151561094a57600080fd5b5050506040518051905084848a5184020181518110151561096757fe5b90602001906020020181815250508080600101915050610842565b828060010193505061081a565b839450505050509392505050565b6109a561139a565b60006109af61139a565b600086925084516040518059106109c35750595b90808252806020026020018201604052509150600090505b8451811015610b16578273ffffffffffffffffffffffffffffffffffffffff1663f7888aec8683815181101515610a0e57fe5b90602001906020020151886000604051602001526040518363ffffffff167c0100000000000000000000000000000000000000000000000000000000028152600401808373ffffffffffffffffffffffffffffffffffffffff1673ffffffffffffffffffffffffffffffffffffffff1681526020018273ffffffffffffffffffffffffffffffffffffffff1673ffffffffffffffffffffffffffffffffffffffff16815260200192505050602060405180830381600087803b1515610ad257600080fd5b6102c65a03f11515610ae357600080fd5b505050604051805190508282815181101515610afb57fe5b906020019060200201818152505080806001019150506109db565b8193505050509392505050565b610b2b61139a565b610b3361139a565b6000808451111515610b4457600080fd5b8351604051805910610b535750595b90808252806020026020018201604052509150600090505b8351811015610c4557600073ffffffffffffffffffffffffffffffffffffffff168482815181101515610b9a57fe5b9060200190602002015173ffffffffffffffffffffffffffffffffffffffff16141515610c0357610be2858583815181101515610bd357fe5b906020019060200201516105d9565b8282815181101515610bf057fe5b9060200190602002018181525050610c38565b8473ffffffffffffffffffffffffffffffffffffffff16318282815181101515610c2957fe5b90602001906020020181815250505b8080600101915050610b6b565b819250505092915050565b6000809054906101000a900473ffffffffffffffffffffffffffffffffffffffff1673ffffffffffffffffffffffffffffffffffffffff163373ffffffffffffffffffffffffffffffffffffffff16141515610cab57600080fd5b60008060009054906101000a900473ffffffffffffffffffffffffffffffffffffffff1673ffffffffffffffffffffffffffffffffffffffff1614151515610cf257600080fd5b600073ffffffffffffffffffffffffffffffffffffffff168173ffffffffffffffffffffffffffffffffffffffff1614151515610d2e57600080fd5b806000806101000a81548173ffffffffffffffffffffffffffffffffffffffff021916908373ffffffffffffffffffffffffffffffffffffffff16021790555050565b6000806000808673ffffffffffffffffffffffffffffffffffffffff168873ffffffffffffffffffffffffffffffffffffffff1614151515610db257600080fd5b600073ffffffffffffffffffffffffffffffffffffffff168673ffffffffffffffffffffffffffffffffffffffff1614151515610dee57600080fd5b600073ffffffffffffffffffffffffffffffffffffffff168873ffffffffffffffffffffffffffffffffffffffff1614151515610e2a57600080fd5b879350869250600090505b8451811015611345578373ffffffffffffffffffffffffffffffffffffffff1663f7888aec8683815181101515610e6857fe5b90602001906020020151886000604051602001526040518363ffffffff167c0100000000000000000000000000000000000000000000000000000000028152600401808373ffffffffffffffffffffffffffffffffffffffff1673ffffffffffffffffffffffffffffffffffffffff1681526020018273ffffffffffffffffffffffffffffffffffffffff1673ffffffffffffffffffffffffffffffffffffffff16815260200192505050602060405180830381600087803b1515610f2c57600080fd5b6102c65a03f11515610f3d57600080fd5b50505060405180519050915060008582815181101515610f5957fe5b9060200190602002015173ffffffffffffffffffffffffffffffffffffffff1614156110b5578373ffffffffffffffffffffffffffffffffffffffff16632e1a7d4d836040518263ffffffff167c010000000000000000000000000000000000000000000000000000000002815260040180828152602001915050600060405180830381600087803b1515610fed57600080fd5b6102c65a03f11515610ffe57600080fd5b5050508273ffffffffffffffffffffffffffffffffffffffff16636a523c5e83886040518363ffffffff167c0100000000000000000000000000000000000000000000000000000000028152600401808273ffffffffffffffffffffffffffffffffffffffff1673ffffffffffffffffffffffffffffffffffffffff1681526020019150506000604051808303818588803b151561109b57600080fd5b6125ee5a03f115156110ac57600080fd5b50505050611338565b84818151811015156110c357fe5b9060200190602002015173ffffffffffffffffffffffffffffffffffffffff1663095ea7b388846000604051602001526040518363ffffffff167c0100000000000000000000000000000000000000000000000000000000028152600401808373ffffffffffffffffffffffffffffffffffffffff1673ffffffffffffffffffffffffffffffffffffffff16815260200182815260200192505050602060405180830381600087803b151561117757600080fd5b6102c65a03f1151561118857600080fd5b50505060405180519050151561119d57600080fd5b8373ffffffffffffffffffffffffffffffffffffffff16639e281a9886838151811015156111c757fe5b90602001906020020151846040518363ffffffff167c0100000000000000000000000000000000000000000000000000000000028152600401808373ffffffffffffffffffffffffffffffffffffffff1673ffffffffffffffffffffffffffffffffffffffff16815260200182815260200192505050600060405180830381600087803b151561125657600080fd5b6102c65a03f1151561126757600080fd5b5050508273ffffffffffffffffffffffffffffffffffffffff1663338b5dea868381518110151561129457fe5b90602001906020020151846040518363ffffffff167c0100000000000000000000000000000000000000000000000000000000028152600401808373ffffffffffffffffffffffffffffffffffffffff1673ffffffffffffffffffffffffffffffffffffffff16815260200182815260200192505050600060405180830381600087803b151561132357600080fd5b6102c65a03f1151561133457600080fd5b5050505b8080600101915050610e35565b5050505050505050565b600160009054906101000a900473ffffffffffffffffffffffffffffffffffffffff1681565b6000809054906101000a900473ffffffffffffffffffffffffffffffffffffffff1681565b6020604051908101604052806000815250905600a165627a7a72305820728a6eec969288cbc9b4468aec569167b4a2d19d098e82f68c52e568a27de1d80029",
  "source": "pragma solidity ^0.4.19;\n\nimport \"./IToken.sol\";\nimport \"./LSafeMath.sol\";\n\n// For exchanges that have the same functions as EtherDelta, we call them EtherDelta-like contracts\ncontract EtherDelta {\n    function balanceOf(address token, address user) public view returns (uint);\n    // Withdraw only Ether\n    function withdraw(uint amount);\n    // Withdraw specific token\n    function withdrawToken(address token, uint amount);\n    // Deposit only ether\n    function deposit() payable;\n    // Deposit specific token\n    function depositToken(address token, uint amount);\n}\n\n// For exchanges that have the same functions as EtherDelta, we call them EtherDelta-like contracts\ncontract ForkDelta {\n    function balanceOf(address token, address user) public view returns (uint);\n    // Withdraw only Ether\n    function withdraw(uint amount);\n    // Withdraw specific token\n    function withdrawToken(address token, uint amount);\n    // Deposit only ether\n    function deposit() payable;\n    // Deposit specific token\n    function depositToken(address token, uint amount);\n    // Deposit only ether for specific user\n    function depositForUser(address user) public payable;\n}\n\ncontract MigrationUtility {\n\n    using LSafeMath for uint;\n\n    /// Variables\n    address public admin; // the admin address\n    address public fee; // Possible fee if migration made into separate app should always be 0.1%\n    mapping (address => mapping (address => uint)) public tokenBalances; // mapping of token addresses to mapping of account balances (token=0 means Ether)\n\n    /* Constructor - called on creation of contract */\n    function MigrationUtility(address admin_, address fee_) public {\n        admin = admin_;\n        fee =  fee_;\n    }\n\n    /// This is a modifier for functions to check if the sending user address is the same as the admin user address.\n    modifier isAdmin() {\n        require(msg.sender == admin);\n        _;\n    }\n\n    /// Changes the official admin user address.\n    function changeAdmin(address admin_) public isAdmin {\n        require(admin != 0);\n        require(admin_ != address(0));\n        admin = admin_;\n    }\n\n    ///================================================================================\n    /// Transferring Balances\n    ///================================================================================\n    /* Transfer balances from EtherDelta-like contract to ForkDelta-like contract*/\n    function transferEDtoFDBalances(address exchangeFrom, address exchangeTo, address user, address[] transferTokens) public {\n        require(exchangeFrom != exchangeTo);\n        require(user != address(0));\n        require(exchangeFrom != address(0));\n\n        // Exchange from\n        EtherDelta exFrom = EtherDelta(exchangeFrom);\n        // Exchange to\n        ForkDelta exTo = ForkDelta(exchangeTo);\n\n        // Current token balance\n        uint balance;\n\n        // Withdraw and transfer balances on exchangeFrom to exchangeTo\n        for (uint i = 0; i < transferTokens.length; i++){\n            // Get token balances on exchangeFrom\n            balance = exFrom.balanceOf(transferTokens[i], user);\n            // Handle Ether transfer from old to new contract\n            if (transferTokens[i] == 0) {\n                exFrom.withdraw(balance);\n                exTo.depositForUser.value(balance)(user);\n            // Handle all other token transfers from old to new contract\n            } else {\n                // Approve of transfer\n                require(IToken(transferTokens[i]).approve(exchangeTo, balance));\n                exFrom.withdrawToken(transferTokens[i], balance);\n                exTo.depositToken(transferTokens[i], balance);\n            }\n        }\n    }\n\n\n    ///================================================================================\n    /// Checking Balances\n    ///================================================================================\n    /* Get multiple token balances on EtherDelta (or similar exchange)\n           Returns array of token balances in wei units. */\n    function deltaBalances(\n    address exchange,\n    address user,\n    address[] tokens)\n    public view returns (uint[]) {\n        EtherDelta ex = EtherDelta(exchange);\n        uint[] memory balances = new uint[](tokens.length);\n\n        for (uint i = 0; i < tokens.length; i++) {\n          balances[i] = ex.balanceOf(tokens[i], user);\n        }\n        return balances;\n    }\n\n    /* Get multiple token balances on EtherDelta (or similar exchange)\n       Returns array of token balances in wei units.\n       Balances in token-first order [token0ex0, token0ex1, token0ex2, token1ex0, token1ex1 ...] */\n    function multiDeltaBalances(\n    address[] exchanges,\n    address user,\n    address[] tokens)\n    public view returns (uint[]) {\n        uint[] memory balances = new uint[](tokens.length * exchanges.length);\n\n        for (uint i = 0; i < exchanges.length; i++){\n            EtherDelta ex = EtherDelta(exchanges[i]);\n            for (uint j = 0; j < tokens.length; j++){\n                balances[(j * exchanges.length) + i] = ex.balanceOf(tokens[j], user);\n            }\n        }\n        return balances;\n    }\n\n    /* Check the token balance of a wallet in a token contract\n       Mainly for internal use, but public for anyone who thinks it is useful    */\n    function tokenBalance(\n    address user,\n    address token)\n    public view returns (uint) {\n        //  check if token is actually a contract\n        uint256 tokenCode;\n        assembly {tokenCode := extcodesize(token)} // contract code size\n        if (tokenCode > 0){\n            IToken tok = IToken(token);\n            //  check if balanceOf succeeds\n            if (tok.call(bytes4(keccak256(\"balanceOf(address)\")), user)) {\n                return tok.balanceOf(user);\n            } else {\n                return 0; // not a valid balanceOf, return 0 instead of error\n            }\n        } else {\n            return 0; // not a contract, return 0 instead of error\n        }\n    }\n\n    /* Check the token balances of a wallet for multiple tokens\n       Uses tokenBalance() to be able to return, even if a token isn't valid\n       Returns array of token balances in wei units. */\n    function walletBalances(\n    address user,\n    address[] tokens)\n    public view returns (uint[]) {\n        require(tokens.length > 0);\n        uint[] memory balances = new uint[](tokens.length);\n\n        for (uint i = 0; i < tokens.length; i++){\n            if (tokens[i] != address(0x0)) {// ETH address in Etherdelta config\n                balances[i] = tokenBalance(user, tokens[i]);\n            }\n            else {\n                balances[i] = user.balance; // eth balance\n            }\n        }\n        return balances;\n    }\n\n    /* Combine walletBalances() and deltaBalances() to get both exchange and wallet balances for multiple tokens.\n      Returns array of token balances in wei units, 2* input length.\n      even index [0] is exchange balance, odd [1] is wallet balance\n      [tok0ex, tok0, tok1ex, tok1, .. ] */\n//    function allBalances(\n//    address exchange,\n//    address user,\n//    address[] tokens)\n//    public view returns (uint[]) {\n//        EtherDelta ex = EtherDelta(exchange);\n//        uint[] memory balances = new uint[](tokens.length * 2);\n//\n//        for (uint i = 0; i < tokens.length; i++){\n//            uint j = i * 2;\n//            balances[j] = ex.balanceOf(tokens[i], user);\n//            if (tokens[i] != address(0x0)) {// ETH address in Etherdelta config\n//                balances[j + 1] = tokenBalance(user, tokens[i]);\n//            } else {\n//                balances[j + 1] = user.balance; // eth balance\n//            }\n//        }\n//        return balances;\n//    }\n}\n\n",
  "sourcePath": "/home/squirrel/Projects/migration-tool/smart_contract/contracts/MigrationUtility.sol",
  "compiler": {
    "name": "solc",
    "version": "0.4.19+commit.c4cbbb05.Emscripten.clang"
  },
  "schemaVersion": "2.0.0",
  "updatedAt": "2018-04-04T00:59:47.836Z"
}