{
  "contractName": "ReserveToken",
  "abi": [
    {
      "constant": true,
      "inputs": [],
      "name": "name",
      "outputs": [
        {
          "name": "",
          "type": "string"
        }
      ],
      "payable": false,
      "stateMutability": "view",
      "type": "function"
    },
    {
      "constant": true,
      "inputs": [],
      "name": "minter",
      "outputs": [
        {
          "name": "",
          "type": "address"
        }
      ],
      "payable": false,
      "stateMutability": "view",
      "type": "function"
    },
    {
      "constant": false,
      "inputs": [
        {
          "name": "_spender",
          "type": "address"
        },
        {
          "name": "_value",
          "type": "uint256"
        }
      ],
      "name": "approve",
      "outputs": [
        {
          "name": "success",
          "type": "bool"
        }
      ],
      "payable": false,
      "stateMutability": "nonpayable",
      "type": "function"
    },
    {
      "constant": true,
      "inputs": [],
      "name": "totalSupply",
      "outputs": [
        {
          "name": "",
          "type": "uint256"
        }
      ],
      "payable": false,
      "stateMutability": "view",
      "type": "function"
    },
    {
      "constant": false,
      "inputs": [
        {
          "name": "_from",
          "type": "address"
        },
        {
          "name": "_to",
          "type": "address"
        },
        {
          "name": "_value",
          "type": "uint256"
        }
      ],
      "name": "transferFrom",
      "outputs": [
        {
          "name": "success",
          "type": "bool"
        }
      ],
      "payable": false,
      "stateMutability": "nonpayable",
      "type": "function"
    },
    {
      "constant": true,
      "inputs": [],
      "name": "decimals",
      "outputs": [
        {
          "name": "",
          "type": "uint256"
        }
      ],
      "payable": false,
      "stateMutability": "view",
      "type": "function"
    },
    {
      "constant": true,
      "inputs": [
        {
          "name": "_owner",
          "type": "address"
        }
      ],
      "name": "balanceOf",
      "outputs": [
        {
          "name": "balance",
          "type": "uint256"
        }
      ],
      "payable": false,
      "stateMutability": "view",
      "type": "function"
    },
    {
      "constant": false,
      "inputs": [
        {
          "name": "_to",
          "type": "address"
        },
        {
          "name": "_value",
          "type": "uint256"
        }
      ],
      "name": "transfer",
      "outputs": [
        {
          "name": "success",
          "type": "bool"
        }
      ],
      "payable": false,
      "stateMutability": "nonpayable",
      "type": "function"
    },
    {
      "constant": true,
      "inputs": [
        {
          "name": "_owner",
          "type": "address"
        },
        {
          "name": "_spender",
          "type": "address"
        }
      ],
      "name": "allowance",
      "outputs": [
        {
          "name": "remaining",
          "type": "uint256"
        }
      ],
      "payable": false,
      "stateMutability": "view",
      "type": "function"
    },
    {
      "inputs": [],
      "payable": false,
      "stateMutability": "nonpayable",
      "type": "constructor"
    },
    {
      "anonymous": false,
      "inputs": [
        {
          "indexed": true,
          "name": "_from",
          "type": "address"
        },
        {
          "indexed": true,
          "name": "_to",
          "type": "address"
        },
        {
          "indexed": false,
          "name": "_value",
          "type": "uint256"
        }
      ],
      "name": "Transfer",
      "type": "event"
    },
    {
      "anonymous": false,
      "inputs": [
        {
          "indexed": true,
          "name": "_owner",
          "type": "address"
        },
        {
          "indexed": true,
          "name": "_spender",
          "type": "address"
        },
        {
          "indexed": false,
          "name": "_value",
          "type": "uint256"
        }
      ],
      "name": "Approval",
      "type": "event"
    },
    {
      "constant": false,
      "inputs": [
        {
          "name": "account",
          "type": "address"
        },
        {
          "name": "amount",
          "type": "uint256"
        }
      ],
      "name": "create",
      "outputs": [],
      "payable": false,
      "stateMutability": "nonpayable",
      "type": "function"
    },
    {
      "constant": false,
      "inputs": [
        {
          "name": "account",
          "type": "address"
        },
        {
          "name": "amount",
          "type": "uint256"
        }
      ],
      "name": "destroy",
      "outputs": [],
      "payable": false,
      "stateMutability": "nonpayable",
      "type": "function"
    }
  ],
  "bytecode": "0x6060604052341561000f57600080fd5b33600560006101000a81548173ffffffffffffffffffffffffffffffffffffffff021916908373ffffffffffffffffffffffffffffffffffffffff160217905550610e8e8061005f6000396000f3006060604052600436106100af576000357c0100000000000000000000000000000000000000000000000000000000900463ffffffff16806306fdde03146100b45780630754617214610142578063095ea7b3146101975780630ecaea73146101f157806318160ddd1461023357806323b872dd1461025c578063313ce567146102d557806370a08231146102fe578063a24835d11461034b578063a9059cbb1461038d578063dd62ed3e146103e7575b600080fd5b34156100bf57600080fd5b6100c7610453565b6040518080602001828103825283818151815260200191508051906020019080838360005b838110156101075780820151818401526020810190506100ec565b50505050905090810190601f1680156101345780820380516001836020036101000a031916815260200191505b509250505060405180910390f35b341561014d57600080fd5b6101556104f1565b604051808273ffffffffffffffffffffffffffffffffffffffff1673ffffffffffffffffffffffffffffffffffffffff16815260200191505060405180910390f35b34156101a257600080fd5b6101d7600480803573ffffffffffffffffffffffffffffffffffffffff16906020019091908035906020019091905050610517565b604051808215151515815260200191505060405180910390f35b34156101fc57600080fd5b610231600480803573ffffffffffffffffffffffffffffffffffffffff16906020019091908035906020019091905050610609565b005b341561023e57600080fd5b610246610707565b6040518082815260200191505060405180910390f35b341561026757600080fd5b6102bb600480803573ffffffffffffffffffffffffffffffffffffffff1690602001909190803573ffffffffffffffffffffffffffffffffffffffff1690602001909190803590602001909190505061070d565b604051808215151515815260200191505060405180910390f35b34156102e057600080fd5b6102e8610a08565b6040518082815260200191505060405180910390f35b341561030957600080fd5b610335600480803573ffffffffffffffffffffffffffffffffffffffff16906020019091905050610a0e565b6040518082815260200191505060405180910390f35b341561035657600080fd5b61038b600480803573ffffffffffffffffffffffffffffffffffffffff16906020019091908035906020019091905050610a57565b005b341561039857600080fd5b6103cd600480803573ffffffffffffffffffffffffffffffffffffffff16906020019091908035906020019091905050610ba1565b604051808215151515815260200191505060405180910390f35b34156103f257600080fd5b61043d600480803573ffffffffffffffffffffffffffffffffffffffff1690602001909190803573ffffffffffffffffffffffffffffffffffffffff16906020019091905050610d89565b6040518082815260200191505060405180910390f35b60018054600181600116156101000203166002900480601f0160208091040260200160405190810160405280929190818152602001828054600181600116156101000203166002900480156104e95780601f106104be576101008083540402835291602001916104e9565b820191906000526020600020905b8154815290600101906020018083116104cc57829003601f168201915b505050505081565b600560009054906101000a900473ffffffffffffffffffffffffffffffffffffffff1681565b600081600360003373ffffffffffffffffffffffffffffffffffffffff1673ffffffffffffffffffffffffffffffffffffffff16815260200190815260200160002060008573ffffffffffffffffffffffffffffffffffffffff1673ffffffffffffffffffffffffffffffffffffffff168152602001908152602001600020819055508273ffffffffffffffffffffffffffffffffffffffff163373ffffffffffffffffffffffffffffffffffffffff167f8c5be1e5ebec7d5bd14f71427d1e84f3dd0314c0f7b2291e5b200ac8c7c3b925846040518082815260200191505060405180910390a36001905092915050565b600560009054906101000a900473ffffffffffffffffffffffffffffffffffffffff1673ffffffffffffffffffffffffffffffffffffffff163373ffffffffffffffffffffffffffffffffffffffff1614151561066557600080fd5b6106ae600260008473ffffffffffffffffffffffffffffffffffffffff1673ffffffffffffffffffffffffffffffffffffffff1681526020019081526020016000205482610e10565b600260008473ffffffffffffffffffffffffffffffffffffffff1673ffffffffffffffffffffffffffffffffffffffff168152602001908152602001600020819055506106fd60045482610e10565b6004819055505050565b60045481565b600081600260008673ffffffffffffffffffffffffffffffffffffffff1673ffffffffffffffffffffffffffffffffffffffff16815260200190815260200160002054101580156107da575081600360008673ffffffffffffffffffffffffffffffffffffffff1673ffffffffffffffffffffffffffffffffffffffff16815260200190815260200160002060003373ffffffffffffffffffffffffffffffffffffffff1673ffffffffffffffffffffffffffffffffffffffff1681526020019081526020016000205410155b80156108655750600260008473ffffffffffffffffffffffffffffffffffffffff1673ffffffffffffffffffffffffffffffffffffffff1681526020019081526020016000205482600260008673ffffffffffffffffffffffffffffffffffffffff1673ffffffffffffffffffffffffffffffffffffffff1681526020019081526020016000205401115b156109fc5781600260008573ffffffffffffffffffffffffffffffffffffffff1673ffffffffffffffffffffffffffffffffffffffff1681526020019081526020016000206000828254019250508190555081600260008673ffffffffffffffffffffffffffffffffffffffff1673ffffffffffffffffffffffffffffffffffffffff1681526020019081526020016000206000828254039250508190555081600360008673ffffffffffffffffffffffffffffffffffffffff1673ffffffffffffffffffffffffffffffffffffffff16815260200190815260200160002060003373ffffffffffffffffffffffffffffffffffffffff1673ffffffffffffffffffffffffffffffffffffffff168152602001908152602001600020600082825403925050819055508273ffffffffffffffffffffffffffffffffffffffff168473ffffffffffffffffffffffffffffffffffffffff167fddf252ad1be2c89b69c2b068fc378daa952ba7f163c4a11628f55a4df523b3ef846040518082815260200191505060405180910390a360019050610a01565b600090505b9392505050565b60005481565b6000600260008373ffffffffffffffffffffffffffffffffffffffff1673ffffffffffffffffffffffffffffffffffffffff168152602001908152602001600020549050919050565b600560009054906101000a900473ffffffffffffffffffffffffffffffffffffffff1673ffffffffffffffffffffffffffffffffffffffff163373ffffffffffffffffffffffffffffffffffffffff16141515610ab357600080fd5b80600260008473ffffffffffffffffffffffffffffffffffffffff1673ffffffffffffffffffffffffffffffffffffffff168152602001908152602001600020541015610aff57600080fd5b610b48600260008473ffffffffffffffffffffffffffffffffffffffff1673ffffffffffffffffffffffffffffffffffffffff1681526020019081526020016000205482610e3a565b600260008473ffffffffffffffffffffffffffffffffffffffff1673ffffffffffffffffffffffffffffffffffffffff16815260200190815260200160002081905550610b9760045482610e3a565b6004819055505050565b600081600260003373ffffffffffffffffffffffffffffffffffffffff1673ffffffffffffffffffffffffffffffffffffffff1681526020019081526020016000205410158015610c715750600260008473ffffffffffffffffffffffffffffffffffffffff1673ffffffffffffffffffffffffffffffffffffffff1681526020019081526020016000205482600260008673ffffffffffffffffffffffffffffffffffffffff1673ffffffffffffffffffffffffffffffffffffffff1681526020019081526020016000205401115b15610d7e5781600260003373ffffffffffffffffffffffffffffffffffffffff1673ffffffffffffffffffffffffffffffffffffffff1681526020019081526020016000206000828254039250508190555081600260008573ffffffffffffffffffffffffffffffffffffffff1673ffffffffffffffffffffffffffffffffffffffff168152602001908152602001600020600082825401925050819055508273ffffffffffffffffffffffffffffffffffffffff163373ffffffffffffffffffffffffffffffffffffffff167fddf252ad1be2c89b69c2b068fc378daa952ba7f163c4a11628f55a4df523b3ef846040518082815260200191505060405180910390a360019050610d83565b600090505b92915050565b6000600360008473ffffffffffffffffffffffffffffffffffffffff1673ffffffffffffffffffffffffffffffffffffffff16815260200190815260200160002060008373ffffffffffffffffffffffffffffffffffffffff1673ffffffffffffffffffffffffffffffffffffffff16815260200190815260200160002054905092915050565b6000808284019050610e30848210158015610e2b5750838210155b610e53565b8091505092915050565b6000610e4883831115610e53565b818303905092915050565b801515610e5f57600080fd5b505600a165627a7a72305820d0bbd7a016dda58a381e07f53312079c17ede889bb0c5afb4210b4a162558bcd0029",
  "source": "pragma solidity 0.4.19;\n\ncontract SafeMath {\n  function safeMul(uint a, uint b) internal returns (uint) {\n    uint c = a * b;\n    assert(a == 0 || c / a == b);\n    return c;\n  }\n\n  function safeSub(uint a, uint b) internal returns (uint) {\n    assert(b <= a);\n    return a - b;\n  }\n\n  function safeAdd(uint a, uint b) internal returns (uint) {\n    uint c = a + b;\n    assert(c>=a && c>=b);\n    return c;\n  }\n\n  function assert(bool assertion) internal {\n    if (!assertion) throw;\n  }\n}\n\ncontract Token {\n  /// @return total amount of tokens\n  function totalSupply() constant returns (uint256 supply) {}\n\n  /// @param _owner The address from which the balance will be retrieved\n  /// @return The balance\n  function balanceOf(address _owner) constant returns (uint256 balance) {}\n\n  /// @notice send `_value` token to `_to` from `msg.sender`\n  /// @param _to The address of the recipient\n  /// @param _value The amount of token to be transferred\n  /// @return Whether the transfer was successful or not\n  function transfer(address _to, uint256 _value) returns (bool success) {}\n\n  /// @notice send `_value` token to `_to` from `_from` on the condition it is approved by `_from`\n  /// @param _from The address of the sender\n  /// @param _to The address of the recipient\n  /// @param _value The amount of token to be transferred\n  /// @return Whether the transfer was successful or not\n  function transferFrom(address _from, address _to, uint256 _value) returns (bool success) {}\n\n  /// @notice `msg.sender` approves `_addr` to spend `_value` tokens\n  /// @param _spender The address of the account able to transfer the tokens\n  /// @param _value The amount of wei to be approved for transfer\n  /// @return Whether the approval was successful or not\n  function approve(address _spender, uint256 _value) returns (bool success) {}\n\n  /// @param _owner The address of the account owning tokens\n  /// @param _spender The address of the account able to transfer the tokens\n  /// @return Amount of remaining tokens allowed to spent\n  function allowance(address _owner, address _spender) constant returns (uint256 remaining) {}\n\n  event Transfer(address indexed _from, address indexed _to, uint256 _value);\n  event Approval(address indexed _owner, address indexed _spender, uint256 _value);\n\n  uint public decimals;\n  string public name;\n}\n\ncontract StandardToken is Token {\n\n  function transfer(address _to, uint256 _value) returns (bool success) {\n    //Default assumes totalSupply can't be over max (2^256 - 1).\n    //If your token leaves out totalSupply and can issue more tokens as time goes on, you need to check if it doesn't wrap.\n    //Replace the if with this one instead.\n    if (balances[msg.sender] >= _value && balances[_to] + _value > balances[_to]) {\n    //if (balances[msg.sender] >= _value && _value > 0) {\n      balances[msg.sender] -= _value;\n      balances[_to] += _value;\n      Transfer(msg.sender, _to, _value);\n      return true;\n    } else { return false; }\n  }\n\n  function transferFrom(address _from, address _to, uint256 _value) returns (bool success) {\n    //same as above. Replace this line with the following if you want to protect against wrapping uints.\n    if (balances[_from] >= _value && allowed[_from][msg.sender] >= _value && balances[_to] + _value > balances[_to]) {\n    //if (balances[_from] >= _value && allowed[_from][msg.sender] >= _value && _value > 0) {\n      balances[_to] += _value;\n      balances[_from] -= _value;\n      allowed[_from][msg.sender] -= _value;\n      Transfer(_from, _to, _value);\n      return true;\n    } else { return false; }\n  }\n\n  function balanceOf(address _owner) constant returns (uint256 balance) {\n    return balances[_owner];\n  }\n\n  function approve(address _spender, uint256 _value) returns (bool success) {\n    allowed[msg.sender][_spender] = _value;\n    Approval(msg.sender, _spender, _value);\n    return true;\n  }\n\n  function allowance(address _owner, address _spender) constant returns (uint256 remaining) {\n    return allowed[_owner][_spender];\n  }\n\n  mapping(address => uint256) balances;\n\n  mapping (address => mapping (address => uint256)) allowed;\n\n  uint256 public totalSupply;\n}\n\ncontract ReserveToken is StandardToken, SafeMath {\n  address public minter;\n  function ReserveToken() {\n    minter = msg.sender;\n  }\n  function create(address account, uint amount) {\n    if (msg.sender != minter) throw;\n    balances[account] = safeAdd(balances[account], amount);\n    totalSupply = safeAdd(totalSupply, amount);\n  }\n  function destroy(address account, uint amount) {\n    if (msg.sender != minter) throw;\n    if (balances[account] < amount) throw;\n    balances[account] = safeSub(balances[account], amount);\n    totalSupply = safeSub(totalSupply, amount);\n  }\n}\n\ncontract AccountLevels {\n  //given a user, returns an account level\n  //0 = regular user (pays take fee and make fee)\n  //1 = market maker silver (pays take fee, no make fee, gets rebate)\n  //2 = market maker gold (pays take fee, no make fee, gets entire counterparty's take fee as rebate)\n  function accountLevel(address user) constant returns(uint) {}\n}\n\ncontract AccountLevelsTest is AccountLevels {\n  mapping (address => uint) public accountLevels;\n\n  function setAccountLevel(address user, uint level) {\n    accountLevels[user] = level;\n  }\n\n  function accountLevel(address user) constant returns(uint) {\n    return accountLevels[user];\n  }\n}\n\ncontract EtherDelta is SafeMath, StandardToken, AccountLevels {\n  address public admin; //the admin address\n  address public feeAccount; //the account that will receive fees\n  address public accountLevelsAddr; //the address of the AccountLevels contract\n  uint public feeMake; //percentage times (1 ether)\n  uint public feeTake; //percentage times (1 ether)\n  uint public feeRebate; //percentage times (1 ether)\n  mapping (address => mapping (address => uint)) public tokens; //mapping of token addresses to mapping of account balances (token=0 means Ether)\n  mapping (address => mapping (bytes32 => bool)) public orders; //mapping of user accounts to mapping of order hashes to booleans (true = submitted by user, equivalent to offchain signature)\n  mapping (address => mapping (bytes32 => uint)) public orderFills; //mapping of user accounts to mapping of order hashes to uints (amount of order that has been filled)\n\n  event Order(address tokenGet, uint amountGet, address tokenGive, uint amountGive, uint expires, uint nonce, address user);\n  event Cancel(address tokenGet, uint amountGet, address tokenGive, uint amountGive, uint expires, uint nonce, address user, uint8 v, bytes32 r, bytes32 s);\n  event Trade(address tokenGet, uint amountGet, address tokenGive, uint amountGive, address get, address give);\n  event Deposit(address token, address user, uint amount, uint balance);\n  event Withdraw(address token, address user, uint amount, uint balance);\n\n  function EtherDelta(address admin_, address feeAccount_, address accountLevelsAddr_, uint feeMake_, uint feeTake_, uint feeRebate_) {\n    admin = admin_;\n    feeAccount = feeAccount_;\n    accountLevelsAddr = accountLevelsAddr_;\n    feeMake = feeMake_;\n    feeTake = feeTake_;\n    feeRebate = feeRebate_;\n  }\n\n  function() {\n    throw;\n  }\n\n  function changeAdmin(address admin_) {\n    if (msg.sender != admin) throw;\n    admin = admin_;\n  }\n\n  function changeAccountLevelsAddr(address accountLevelsAddr_) {\n    if (msg.sender != admin) throw;\n    accountLevelsAddr = accountLevelsAddr_;\n  }\n\n  function changeFeeAccount(address feeAccount_) {\n    if (msg.sender != admin) throw;\n    feeAccount = feeAccount_;\n  }\n\n  function changeFeeMake(uint feeMake_) {\n    if (msg.sender != admin) throw;\n    if (feeMake_ > feeMake) throw;\n    feeMake = feeMake_;\n  }\n\n  function changeFeeTake(uint feeTake_) {\n    if (msg.sender != admin) throw;\n    if (feeTake_ > feeTake || feeTake_ < feeRebate) throw;\n    feeTake = feeTake_;\n  }\n\n  function changeFeeRebate(uint feeRebate_) {\n    if (msg.sender != admin) throw;\n    if (feeRebate_ < feeRebate || feeRebate_ > feeTake) throw;\n    feeRebate = feeRebate_;\n  }\n\n  function deposit() payable {\n    tokens[0][msg.sender] = safeAdd(tokens[0][msg.sender], msg.value);\n    Deposit(0, msg.sender, msg.value, tokens[0][msg.sender]);\n  }\n\n  function withdraw(uint amount) {\n    if (tokens[0][msg.sender] < amount) throw;\n    tokens[0][msg.sender] = safeSub(tokens[0][msg.sender], amount);\n    if (!msg.sender.call.value(amount)()) throw;\n    Withdraw(0, msg.sender, amount, tokens[0][msg.sender]);\n  }\n\n  function depositToken(address token, uint amount) {\n    //remember to call Token(address).approve(this, amount) or this contract will not be able to do the transfer on your behalf.\n    if (token==0) throw;\n    if (!Token(token).transferFrom(msg.sender, this, amount)) throw;\n    tokens[token][msg.sender] = safeAdd(tokens[token][msg.sender], amount);\n    Deposit(token, msg.sender, amount, tokens[token][msg.sender]);\n  }\n\n  function withdrawToken(address token, uint amount) {\n    if (token==0) throw;\n    if (tokens[token][msg.sender] < amount) throw;\n    tokens[token][msg.sender] = safeSub(tokens[token][msg.sender], amount);\n    if (!Token(token).transfer(msg.sender, amount)) throw;\n    Withdraw(token, msg.sender, amount, tokens[token][msg.sender]);\n  }\n\n  function balanceOf(address token, address user) constant returns (uint) {\n    return tokens[token][user];\n  }\n\n  function order(address tokenGet, uint amountGet, address tokenGive, uint amountGive, uint expires, uint nonce) {\n    bytes32 hash = sha256(this, tokenGet, amountGet, tokenGive, amountGive, expires, nonce);\n    orders[msg.sender][hash] = true;\n    Order(tokenGet, amountGet, tokenGive, amountGive, expires, nonce, msg.sender);\n  }\n\n  function trade(address tokenGet, uint amountGet, address tokenGive, uint amountGive, uint expires, uint nonce, address user, uint8 v, bytes32 r, bytes32 s, uint amount) {\n    //amount is in amountGet terms\n    bytes32 hash = sha256(this, tokenGet, amountGet, tokenGive, amountGive, expires, nonce);\n    if (!(\n      (orders[user][hash] || ecrecover(sha3(\"\\x19Ethereum Signed Message:\\n32\", hash),v,r,s) == user) &&\n      block.number <= expires &&\n      safeAdd(orderFills[user][hash], amount) <= amountGet\n    )) throw;\n    tradeBalances(tokenGet, amountGet, tokenGive, amountGive, user, amount);\n    orderFills[user][hash] = safeAdd(orderFills[user][hash], amount);\n    Trade(tokenGet, amount, tokenGive, amountGive * amount / amountGet, user, msg.sender);\n  }\n\n  function tradeBalances(address tokenGet, uint amountGet, address tokenGive, uint amountGive, address user, uint amount) private {\n    uint feeMakeXfer = safeMul(amount, feeMake) / (1 ether);\n    uint feeTakeXfer = safeMul(amount, feeTake) / (1 ether);\n    uint feeRebateXfer = 0;\n    if (accountLevelsAddr != 0x0) {\n      uint accountLevel = AccountLevels(accountLevelsAddr).accountLevel(user);\n      if (accountLevel==1) feeRebateXfer = safeMul(amount, feeRebate) / (1 ether);\n      if (accountLevel==2) feeRebateXfer = feeTakeXfer;\n    }\n    tokens[tokenGet][msg.sender] = safeSub(tokens[tokenGet][msg.sender], safeAdd(amount, feeTakeXfer));\n    tokens[tokenGet][user] = safeAdd(tokens[tokenGet][user], safeSub(safeAdd(amount, feeRebateXfer), feeMakeXfer));\n    tokens[tokenGet][feeAccount] = safeAdd(tokens[tokenGet][feeAccount], safeSub(safeAdd(feeMakeXfer, feeTakeXfer), feeRebateXfer));\n    tokens[tokenGive][user] = safeSub(tokens[tokenGive][user], safeMul(amountGive, amount) / amountGet);\n    tokens[tokenGive][msg.sender] = safeAdd(tokens[tokenGive][msg.sender], safeMul(amountGive, amount) / amountGet);\n  }\n\n  function testTrade(address tokenGet, uint amountGet, address tokenGive, uint amountGive, uint expires, uint nonce, address user, uint8 v, bytes32 r, bytes32 s, uint amount, address sender) constant returns(bool) {\n    if (!(\n      tokens[tokenGet][sender] >= amount &&\n      availableVolume(tokenGet, amountGet, tokenGive, amountGive, expires, nonce, user, v, r, s) >= amount\n    )) return false;\n    return true;\n  }\n\n  function availableVolume(address tokenGet, uint amountGet, address tokenGive, uint amountGive, uint expires, uint nonce, address user, uint8 v, bytes32 r, bytes32 s) constant returns(uint) {\n    bytes32 hash = sha256(this, tokenGet, amountGet, tokenGive, amountGive, expires, nonce);\n    if (!(\n      (orders[user][hash] || ecrecover(sha3(\"\\x19Ethereum Signed Message:\\n32\", hash),v,r,s) == user) &&\n      block.number <= expires\n    )) return 0;\n    uint available1 = safeSub(amountGet, orderFills[user][hash]);\n    uint available2 = safeMul(tokens[tokenGive][user], amountGet) / amountGive;\n    if (available1<available2) return available1;\n    return available2;\n  }\n\n  function amountFilled(address tokenGet, uint amountGet, address tokenGive, uint amountGive, uint expires, uint nonce, address user, uint8 v, bytes32 r, bytes32 s) constant returns(uint) {\n    bytes32 hash = sha256(this, tokenGet, amountGet, tokenGive, amountGive, expires, nonce);\n    return orderFills[user][hash];\n  }\n\n  function cancelOrder(address tokenGet, uint amountGet, address tokenGive, uint amountGive, uint expires, uint nonce, uint8 v, bytes32 r, bytes32 s) {\n    bytes32 hash = sha256(this, tokenGet, amountGet, tokenGive, amountGive, expires, nonce);\n    if (!(orders[msg.sender][hash] || ecrecover(sha3(\"\\x19Ethereum Signed Message:\\n32\", hash),v,r,s) == msg.sender)) throw;\n    orderFills[msg.sender][hash] = amountGet;\n    Cancel(tokenGet, amountGet, tokenGive, amountGive, expires, nonce, msg.sender, v, r, s);\n  }\n}\n",
  "sourcePath": "/home/squirrel/Projects/migration-tool/smart_contract/contracts/EtherDelta.sol",
  "compiler": {
    "name": "solc",
    "version": "0.4.19+commit.c4cbbb05.Emscripten.clang"
  },
  "schemaVersion": "2.0.0",
  "updatedAt": "2018-04-03T20:10:48.029Z"
}